:100000000C9435000C945D000C945D000C945D0024
:100010000C945D000C945D000C945D000C945D00EC
:100020000C945D000C945D000C945D000C945D00DC
:100030000C945D000C945D000C945D000C945D00CC
:100040000C942F030C945D000C94FD020C94D702C9
:100050000C945D000C945D000C945D000C945D00AC
:100060000C945D000C945D00800411241FBECFEF42
:10007000D8E0DEBFCDBF12E0A0E0B1E0E0E1FCE0FF
:1000800002C005900D92AC3EB107D9F723E0ACEE6B
:10009000B2E001C01D92A439B207E1F710E0C5E358
:1000A000D0E004C02197FE010E940006C433D107AE
:1000B000C9F70E9479030C9406060C940000AF92D5
:1000C000BF92CF92DF92EF92FF920F931F93CF9345
:1000D000DF936C017B018B01040F151FEB015E01A7
:1000E000AE18BF08C017D10759F06991D601ED913C
:1000F000FC910190F081E02DC6010995892B79F7DB
:10010000C501DF91CF911F910F91FF90EF90DF908C
:10011000CF90BF90AF900895FC01538D448D252F53
:1001200030E0842F90E0821B930B541710F0CF9691
:10013000089501970895FC01918D828D981761F0C3
:10014000A28DAE0FBF2FB11D5D968C91928D9F5FDA
:100150009F73928F90E008958FEF9FEF0895FC01B9
:10016000918D828D981731F0828DE80FF11D858D6C
:1001700090E008958FEF9FEF0895FC01918D228DFF
:10018000892F90E0805C9F4F821B91098F73992784
:10019000089587EF92E00E94BD0021E0892B09F4C9
:1001A00020E0822F089580E090E0892B29F00E94C2
:1001B000C90081110C9400000895FC01A48DA80FC2
:1001C000B92FB11DA35ABF4F2C91848D90E0019699
:1001D0008F739927848FA689B7892C93A089B189B9
:1001E0008C91837080648C93938D848D981306C05A
:1001F0000288F389E02D80818F7D80830895EF92BE
:10020000FF920F931F93CF93DF93EC0181E0888FD0
:100210009B8D8C8D98131AC0E889F989808185FFA0
:1002200015C09FB7F894EE89FF896083E889F98942
:1002300080818370806480839FBF81E090E0DF9144
:10024000CF911F910F91FF90EF900895F62E0B8D97
:1002500010E00F5F1F4F0F731127E02E8C8D8E1152
:100260000CC00FB607FCFACFE889F989808185FFB9
:10027000F5CFCE010E94DD00F1CFEB8DEC0FFD2F0D
:10028000F11DE35AFF4FF0829FB7F8940B8FEA8974
:10029000FB8980818062CFCFCF93DF93EC01888D83
:1002A0008823B9F0AA89BB89E889F9898C9185FDF1
:1002B00003C0808186FD0DC00FB607FCF7CF8C917F
:1002C00085FFF2CF808185FFEDCFCE010E94DD005A
:1002D000E9CFDF91CF910895FC0101900020E9F76B
:1002E0003197AF01481B590BBC0187EF92E00C948A
:1002F0005F008F929F92AF92BF920F931F93CF9305
:10030000DF93CDB7DEB7A1970FB6F894DEBF0FBE6F
:10031000CDBF19A2423008F44AE08E010F5D1F4F95
:10032000842E912CB12CA12CA50194010E94DE05F4
:10033000E62FB901CA01EA30F4F4E05DD801EE938A
:100340008D01232B242B252B79F790E080E010974B
:1003500019F0CD010E946C01A1960FB6F894DEBF92
:100360000FBECDBFDF91CF911F910F91BF90AF9086
:100370009F908F900895E95CE1CFCF92DF92EF924A
:10038000FF92CF93DF936B017C016DE287EF92E0E8
:100390000E94FF00EC0166277727CB016C197D09CD
:1003A0008E099F094AE00E9479018C0F9D1FDF9101
:1003B000CF91FF90EF90DF90CF900895CF93DF9390
:1003C000D0E0C0E0009719F00E946C01EC018AE2D5
:1003D00091E00E946C018C0F9D1FDF91CF910895D9
:1003E000009711F00C946C0190E080E008958F92DA
:1003F0009F92AF92BF92CF92DF92EF92FF920F93B4
:100400001F93CF93DF938C01EC01D12CC12CF12CE5
:10041000E12CF80182819381C816D9060CF088C0BE
:100420008E819F81019649F490E080E0E80EF91EEC
:10043000FFEFCF1ADF0A2896ECCF8FB7F8944091E0
:10044000F1025091F2026091F3027091F4028FBFB9
:100450008C819D81092E000CAA0BBB0B481B590BEC
:100460006A0B7B0B8E819F81092E000CAA0BBB0BA4
:10047000481759076A077B07B8F28DE291E00E949E
:10048000F0012FB7F8946091F1027091F20280911F
:10049000F3029091F4022FBF8C809D80092C000CF8
:1004A000AA08BB08681979098A099B094AE00E94D1
:1004B00079018AE291E00E946C0184E491E00E945B
:1004C000F001888599850E94F00180E691E00E9404
:1004D000F0016A857B85072E000C880B990B97FF2E
:1004E00023C00E94BD018DE891E00E94F001F80157
:1004F000808191810E94F00184EB92E00E94DE01F4
:1005000084E691E00E94DE012FB7F8948091F10219
:100510009091F202A091F302B091F4022FBF9D835B
:100520008C8381E090E082CF4AE00E947901DBCFAA
:10053000EF2881F187E791E00E94F001F8016281E4
:100540007381072E000C880B990B97FF1FC00E9428
:10055000BD0183E891E00E94F001F8018081918162
:100560000E94DE018FE991E00E94DE0182EB91E0C2
:10057000DF91CF911F910F91FF90EF90DF90CF907F
:10058000BF90AF909F908F900C94DE014AE00E9444
:100590007901DFCFDF91CF911F910F91FF90EF9005
:1005A000DF90CF90BF90AF909F908F9008951F9253
:1005B0000F920FB60F9211242F933F934F935F9397
:1005C0006F937F938F939F93AF93BF93EF93FF931B
:1005D00087EF92E00E94DD00FF91EF91BF91AF9114
:1005E0009F918F917F916F915F914F913F912F914B
:1005F0000F900FBE0F901F9018951F920F920FB67D
:100600000F9211242F938F939F93EF93FF93E09179
:100610000703F09108038081E0910D03F0910E0330
:1006200082FD1BC09081809110038F5F8F7320919A
:100630001103821741F0E0911003F0E0E950FD4F03
:10064000958F80931003FF91EF919F918F912F9140
:100650000F900FBE0F901F9018958081F4CF1F92BE
:100660000F920FB60F9211242F933F938F939F9366
:10067000AF93BF938091F1029091F202A091F302A7
:10068000B091F4023091F00223E0230F2D3758F59A
:100690000196A11DB11D2093F0028093F102909369
:1006A000F202A093F302B093F4028091EC029091D5
:1006B000ED02A091EE02B091EF020196A11DB11DD5
:1006C0008093EC029093ED02A093EE02B093EF02C0
:1006D000BF91AF919F918F913F912F910F900FBE3E
:1006E0000F901F90189526E8230F0296A11DB11DAB
:1006F000D2CF789484B5826084BD84B5816084BD96
:1007000085B5826085BD85B5816085BD80916E00AF
:10071000816080936E0010928100809181008260E0
:10072000809381008091810081608093810080911D
:1007300080008160809380008091B100846080930C
:10074000B1008091B00081608093B00080917A0008
:10075000846080937A0080917A00826080937A002E
:1007600080917A00816080937A0080917A0080681D
:1007700080937A001092C1008AEC91E00E94DE0121
:10078000E0910703F091080382E08083E091030386
:10079000F09104031082E0910503F091060380E1DB
:1007A000808310920F03E0910B03F0910C0386E01D
:1007B0008083E0910903F0910A0380818061808346
:1007C000E0910903F0910A03808188608083E091C1
:1007D0000903F0910A03808180688083E091090316
:1007E000F0910A0380818F7D808386ED91E00E94E5
:1007F000DE018EEE91E00E94DE0184E192E00E9433
:10080000DE018BE292E00E94DE018091F502909180
:10081000F602823091050CF443C082E492E00E941B
:10082000DE0185E692E00E94DE0115E4C0E0D0E042
:1008300010921701109216018CE091E00E94F701CE
:1008400010937C0080917A00806480937A0080917C
:100850007A0086FDFCCF8091780060917900762F38
:10086000682F072E000C880B990B0E94E50420E0EE
:1008700030E048EC5CE30E9449050E94AD047093AF
:100880000B0160930A0180E091E00E94F70120973C
:1008900079F20E94C900882359F20E940000C8CF53
:1008A00001969093F6028093F5020CE011E0D0E0FF
:1008B000C0E0085F1F4F80910E0190910F01C81793
:1008C000D9070CF0B2CF84E892E00E94F001F80161
:1008D000808191810E94F0018FE992E00E94F001F5
:1008E00080910C0190910D010E94F00183EB92E048
:1008F0000E94DE0188EB92E00E94DE012196D9CFB2
:10090000E7EFF2E01382128288EE93E0A0E0B0E01D
:1009100084839583A683B7838CE191E09183808360
:1009200085EC90E09587848784EC90E097878687B4
:1009300080EC90E0918B808B81EC90E0938B828BAC
:1009400082EC90E0958B848B86EC90E0978B868B85
:10095000118E128E138E148E08950E94B404689422
:10096000B1110C94430508950E94280588F09F5703
:1009700098F0B92F9927B751B0F0E1F0660F771FC3
:10098000881F991F1AF0BA95C9F714C0B13091F0B9
:100990000E944205B1E008950C944205672F782F1C
:1009A0008827B85F39F0B93FCCF38695779567957E
:1009B000B395D9F73EF490958095709561957F4FEA
:1009C0008F4F9F4F0895E89409C097FB3EF4909590
:1009D0008095709561957F4F8F4F9F4F9923A9F018
:1009E000F92F96E9BB279395F695879577956795A7
:1009F000B795F111F8CFFAF4BB0F11F460FF1BC0EB
:100A00006F5F7F4F8F4F9F4F16C0882311F096E97D
:100A100011C0772321F09EE8872F762F05C066232B
:100A200071F096E8862F70E060E02AF09A95660FE4
:100A3000771F881FDAF7880F9695879597F908959D
:100A400057FD9058440F551F59F05F3F71F047957F
:100A5000880F97FB991F61F09F3F79F08795089564
:100A6000121613061406551FF2CF4695F1DF08C083
:100A7000161617061806991FF1CF869571056105A0
:100A800008940895E894BB2766277727CB0197F948
:100A900008950E945C050C94CD050E94BF0538F0B6
:100AA0000E94C60520F0952311F00C94B6050C9415
:100AB000BC0511240C9443050E94200570F3959FFA
:100AC000C1F3950F50E0551F629FF001729FBB2745
:100AD000F00DB11D639FAA27F00DB11DAA1F649FE1
:100AE0006627B00DA11D661F829F2227B00DA11D94
:100AF000621F739FB00DA11D621F839FA00D611D1A
:100B0000221F749F3327A00D611D231F849F600D3A
:100B1000211D822F762F6A2F11249F5750409AF063
:100B2000F1F088234AF0EE0FFF1FBB1F661F771FEF
:100B3000881F91505040A9F79E3F510580F00C94BA
:100B4000B6050C9443055F3FE4F3983ED4F38695D5
:100B500077956795B795F795E7959F5FC1F7FE2B5A
:100B6000880F911D9695879597F9089597F99F6736
:100B700080E870E060E008959FEF80EC0895002425
:100B80000A941616170618060906089500240A94F2
:100B900012161306140605060895092E0394000C78
:100BA00011F4882352F0BB0F40F4BF2B11F460FF07
:100BB00004C06F5F7F4F8F4F9F4F0895A1E21A2EA1
:100BC000AA1BBB1BFD010DC0AA1FBB1FEE1FFF1FF1
:100BD000A217B307E407F50720F0A21BB30BE40B41
:100BE000F50B661F771F881F991F1A9469F7609588
:100BF0007095809590959B01AC01BD01CF01089542
:100C0000EE0FFF1F0590F491E02D0994F894FFCFAB
:100C1000CC02010000008813D0020000DB020100BA
:100C20000000FFFFE102000000000000FF005F0085
:100C30008C004C01BD009B00AF000D0A005469659B
:100C40006D706F207472616E736375727269646F18
:100C5000203A200045736372696269656E646F2093
:100C60004A534F4E2E205661726961626C652000B6
:100C7000203D200045736372697475726120657848
:100C800069746F73612E005075626C6963616E6484
:100C90006F2000207661726961626C657320646503
:100CA0006C20646973706F73697469766F2000508B
:100CB00075626C6963616E646F204A534F4E2E2ECD
:100CC0002E005075626C696361646F206578697489
:100CD0006F73616D656E74652E004269656E766531
:100CE0006E69646F2100436F6E656374616E646F3B
:100CF000736520616C20576946692E2E2E00436F64
:100D00006E65637461646F2061206C61207265643C
:100D1000205769466920657869746F73616D656EE7
:100D200074652E00436F6E6669677572616E646FDD
:100D30002042726F6B65722E2E2E00436F6E6669B5
:100D40006775726163696F6E20657869746F73612E
:100D50002E004C696D69746520646520737573633A
:100D600072697063696F6E657320616C63616E7A1E
:100D700061646F2E0050756564652061756D656EE8
:100D80007461726C6F20656E20556269646F747354
:100D90002E682E005375736372696269656E646FA5
:100DA000206C61207661726961626C652027002782
:100DB0002064656C20646973706F73697469766F01
:100DC000202700272E2E2E005375736372697063DF
:100DD000696F6E20657869746F7361006C6472006E
:100DE000696E74656E736964616400626F746F6EBE
:0C0DF0000070726573696F6E61646F00C3
:00000001FF
