:020000040000FA
:100000000C9463000C948B000C948B000C948B006C
:100010000C948B000C948B000C948B000C948B0034
:100020000C948B000C948B000C948B000C948B0024
:100030000C948B000C948B000C948B000C948B0014
:100040000C948A040C948B000C948B000C948B0001
:100050000C948B000C948B000C948B000C948B00F4
:100060000C94D4040C948B000000000024002700A2
:100070002A0000000000250028002B0000000000DE
:1000800023002600290004040404040404040202DA
:100090000202020203030303030301020408102007
:1000A0004080010204081020010204081020000012
:1000B0000008000201000003040700000000000027
:1000C0000000EF052F0B11241FBECFEFD8E0DEBFDD
:1000D000CDBF11E0A0E0B1E0EAEFFAE102C0059087
:1000E0000D92AC39B107D9F725E0ACE9B1E001C018
:1000F0001D92A53AB207E1F710E0C2E6D0E004C0D5
:100100002197FE010E94780BC136D107C9F70E94E2
:10011000AC070C94700D0C940000009761F0FC018A
:1001200082819381009739F0FC0122813381232B56
:1001300011F090E080E0089596E0899FD0011124AD
:10014000AE5CBA4F90967C936E935F9791E09196D8
:100150009C939197E0919F05F091A00590919E0549
:10016000992339F0309751F0811108C080914E05E4
:100170000994309719F05C968C91FACF0895CF923C
:10018000DF92EF92FF920F931F9396E0899FF00109
:100190001124EE5CFA4F11A2278D30A121303105D8
:1001A00051F178F02230310509F451C02330310586
:1001B00009F452C01F910F91FF90EF90DF90CF9004
:1001C00008956623B9F361E070E00E949C002FB7A8
:1001D000F8948091200290912102A0912202B09186
:1001E00023022FBF80938A0590938B05A0938C05E3
:1001F000B0938D05DFCF9FB7F894C0902002D090C8
:100200002102E0902202F09023029FBF00918A0514
:1002100010918B0520918C0530918D05C01AD10A63
:10022000E20AF30A00919C0510919D0530E020E060
:100230000C151D052E053F0550F462E070E01F917E
:100240000F91FF90EF90DF90CF900C949C00611184
:10025000B1CF63E070E0F3CF70E060E0F0CFAF9239
:10026000BF92CF92DF92EF92FF920F931F93CF93A3
:10027000DF936C017B018B01040F151FEB015E0105
:10028000AE18BF08C017D10759F06991D601ED919A
:10029000FC910190F081E02DC6010995892B79F739
:1002A000C501DF91CF911F910F91FF90EF90DF90EB
:1002B000CF90BF90AF900895833081F028F48130C3
:1002C00099F08230A9F008958730A9F08830C9F0FC
:1002D0008430B1F4809180008F7D03C080918000D4
:1002E0008F7780938000089584B58F7784BD0895BB
:1002F00084B58F7DFBCF8091B0008F778093B00065
:1003000008958091B0008F7DF9CFCF93DF93282F90
:1003100030E0F901E255FF4F8491F901E656FF4FB5
:10032000D491F901EA57FF4FC491CC23A1F0811178
:100330000E945C01EC2FF0E0EE0FFF1FE458FF4F2E
:10034000A591B491EC91ED2381E090E009F480E077
:10035000DF91CF91089580E090E0FACF862F0C9442
:1003600085011F93CF93DF93282F30E0F901E255E9
:10037000FF4F8491F901E656FF4FD491F901EA57F6
:10038000FF4FC491CC23A9F0162F81110E945C016C
:10039000EC2FF0E0EE0FFF1FEE58FF4FA591B49148
:1003A0008FB7F894EC91111108C0D095DE23DC933F
:1003B0008FBFDF91CF911F910895DE2BF8CF862F4D
:1003C000642F0C94B101CF93DF9390E0FC01E656CB
:1003D000FF4F24918A579F4FFC0184918823C9F0D5
:1003E00090E0880F991FFC01E859FF4FA591B49147
:1003F000FC01EE58FF4FC591D49161110DC09FB71C
:10040000F8948C91209582238C93888128232883CB
:100410009FBFDF91CF910895623051F49FB7F89458
:100420003C91822F809583238C93E8812E2BEFCFF4
:100430008FB7F894EC912E2B2C938FBFEACF862F99
:10044000642F0C94E3012091C301260F3327331F3F
:1004500021323105ECF42091E701FC0190E080E0CD
:10046000243069F082E00895A091C3012191AC018C
:100470004D555E4FA40FB52FB11D2C9301968617D5
:1004800098F38091C301680F6093C30180E00895E1
:1004900081E0089508958FEF9FEF08958FEF9FEF0C
:1004A000089580919C0190E091958195910908951E
:1004B000CF93DF93CB01EA01642F0E942302CE0188
:1004C000DF91CF910895CF93DF931F92CDB7DEB721
:1004D000698361E0CE0101960E94230281E090E0F1
:1004E0000F90DF91CF910895089590E080E00895F6
:1004F000CF93DF93EC0160E08E810E94B10161E057
:100500008E810E94B10160E08E810E94B1018BE872
:1005100091E00197F1F7DF91CF910895CF92DF92AB
:10052000EF92FF920F931F93CF93DF936C017C01A7
:1005300087E0E80EF11CD0E0C0E0062F10E0B80123
:100540000C2E02C0759567950A94E2F76170F70169
:1005500081917F010E94B1012196C430D10579F7C4
:10056000C601DF91CF911F910F91FF90EF90DF9027
:10057000CF900C947802CF92DF92EF92FF920F937C
:100580001F93CF93DF93EC01F62E642F8C810E9492
:10059000B1018D818F3F19F060E00E94B1010F2DF4
:1005A00010E08F8584FF25C06E0187E0C80ED11C46
:1005B000F12CE12CB8010E2C02C0759567950A94B8
:1005C000E2F76170F60181916F010E94B101FFEFC6
:1005D000EF1AFF0A88E0E816F10461F7CE01DF9117
:1005E000CF911F910F91FF90EF90DF90CF900C94DF
:1005F0007802B80184E0759567958A95E1F7CE0198
:100600000E948E026F2DCE01DF91CF911F910F912D
:10061000FF90EF90DF90CF900C948E0241E00E940B
:10062000BB0281E090E0089540E00C94BB020F9380
:100630001F93CF93DF93EC01423018F08F858860D1
:100640008F874B8B1C8A80E48D8B6E8B605C6F8BED
:1006500061E08C810E94E3018D818F3F19F061E0A0
:100660000E94E30161E08E810E94E3018E01980106
:100670002C1B3D0B8F8584FD0DC084E090E00F5F47
:100680001F4F281739074CF461E0F80186810E945A
:10069000E301EDCF88E090E0F2CF8BE39DE001979E
:1006A000F1F760E08C810E94B10160E08E810E94D0
:1006B000B1018D818F3F19F060E00E94B1016F851B
:1006C00064FD39C063E0CE010E948E020BE416E4A3
:1006D000C8010197F1F763E0CE010E948E02C801C4
:1006E0000197F1F763E0CE010E948E0283E592E06C
:1006F0000197F1F762E0CE010E948E026F85606281
:10070000CE010E94140384E0888B6CE0CE010E942D
:10071000140361E0CE010E9414038BE39FE1019773
:10072000F1F782E0898B66E0CE01DF91CF911F91D6
:100730000F910C9414036062CE010E9414038BE4A9
:1007400096E40197F1F76F856062CE010E94140371
:1007500083E592E00197F1F76F856062CE010E9418
:100760001403CCCFE0911C02F0911D028285938589
:100770006281E481E43008F0E3E0DC0153962C91DF
:10078000E21710F0EFEFE20FE80FF92FF11D2489C7
:10079000620F60680C941403EF92FF920F931F9303
:1007A000CF93DF93EC017B01198218821B821A829E
:1007B0001D821C82FB0101900020E9F731978F0117
:1007C000061B170BB8016F5F7F4F90E080E00E941F
:1007D000A30C0097B9F0998388831B830A832C812B
:1007E0003D81232B11F4FC0110821D830C83B70182
:1007F00088819981DF91CF911F910F91FF90EF90A8
:100800000C94690D88819981009711F00E941A0C4F
:10081000198218821D821C821B821A82DF91CF915D
:100820001F910F91FF90EF9008951F93CF93DF9347
:1008300085ED8093BC0080919F019091A001A091D3
:10084000A101B091A2010796A11DB11D23E0B695AB
:10085000A795979587952A95D1F72091BC0024FDFF
:1008600003C01092E70152C040919F015091A00136
:100870006091A1017091A201452B462B472B69F392
:100880000097A105B10541F025E32A95F1F7000095
:100890000197A109B109E1CF80919E01C1E0C09308
:1008A0009D01882399F1D091B8001091BA008091F0
:1008B000BC008A7B8093BC0060E082E10E94B101B1
:1008C00060E083E10E94B1011092E701C093E90169
:1008D0001092E80161E082E10E94B10161E083E1F0
:1008E0000E94B1018091B9008E7F8093B900809100
:1008F000B9008D7F8093B90088E48093B80085E4C7
:100900008093BC001093BA00D093B800DF91CF91D0
:100910001F9108951F920F920FB60F9211242F93DB
:100920003F938F939F93AF93BF93809120029091B9
:100930002102A0912202B09123023091110223E002
:10094000230F2D3758F50196A11DB11D20931102DB
:100950008093200290932102A0932202B09323025D
:1009600080910D0290910E02A0910F02B0911002A1
:100970000196A11DB11D80930D0290930E02A093CC
:100980000F02B0931002BF91AF919F918F913F9151
:100990002F910F900FBE0F901F90189526E8230FF0
:1009A0000296A11DB11DD2CF1F920F920FB60F92CA
:1009B00011242F933F934F935F936F937F938F9364
:1009C0009F93AF93BF93EF93FF938091B900887F7C
:1009D000803609F44AC0F0F5883209F4A5C018F54C
:1009E000803109F499C0B8F4882309F4F5C088303F
:1009F00009F492C0FF91EF91BF91AF919F918F91B8
:100A00007F916F915F914F913F912F910F900FBE0A
:100A10000F901F901895883109F486C0803251F7E5
:100A20008093E60114C0803409F49BC040F4803305
:100A3000B9F38833F9F68093E60185ECAEC08035D2
:100A400009F483C0883509F494C0883499F60E946B
:100A50001504D0CF883909F48AC038F5883729F0D1
:100A600050F4883611F0803729F683E08093E7014F
:100A70001092E50155C0883809F479C0803919F021
:100A8000803809F0B7CF8091E501803208F06FC05F
:100A9000E091E50181E08E0F8093E5018091BB003C
:100AA000F0E0EB53FE4F80833BC0803B39F0D0F445
:100AB000803A09F477C0883A09F09CCF84E08093AB
:100AC000E7011092C4011092C301F0E0E0E0099543
:100AD0008091C30181110FC081E08093C301109206
:100AE000A30109C0803C09F4A8CF883C09F4A5CF34
:100AF000883B09F07FCFE091C40181E08E0F8093A5
:100B0000C401F0E0ED55FE4F80818093BB009091D1
:100B1000C4018091C30129C080910C028093BB0065
:100B200085EC8093BC0066CF90910B0280910A0205
:100B3000981758F5E0910B0281E08E0F80930B021D
:100B4000F0E0E651FE4F8081E9CFE0910B0281E0B9
:100B50008E0F80930B028091BB00F0E0E651FE4FB8
:100B6000808390910B0280910A029817C8F285E861
:100B7000D8CFE0910B0281E08E0F80930B02809121
:100B8000BB00F0E0E651FE4F80838091E9018111C6
:100B90005ECF81E08093E80184EA8093BC001092EC
:100BA000E70128CF85EC8093BC001092E70180918B
:100BB000E501803230F4E091E501F0E0EB53FE4FC7
:100BC00010826091E50170E085EC91E0F0E0E0E0FA
:100BD00009951092E5010ECF1092E60138CFBF9231
:100BE000CF92DF92EF92FF920F931F93CF93DF93F9
:100BF000109234051092380510923705109239057D
:100C00008AE891E09093330580933205EEE4F5E0B5
:100C10001082148213821582369625E0EA38F20794
:100C2000B9F784E491E0909395058093940580E46E
:100C300091E0909397058093960584E080939805C2
:100C40008093990588E491E09093930580939205B1
:100C50008AE090E090939B0580939A0584EF91E061
:100C600090939D0580939C051092A00510929F057E
:100C700010928E0510928F0510929005109291059A
:100C800010929E0560E971E080E295E00E94CC033D
:100C900064E971E086E295E00E94CC0368E971E0C6
:100CA0008CE295E00E94CC0310920B0510920A058D
:100CB000AEE7CA2EA1E0DA2ED0920905C09208054F
:100CC000EE24E394E0920C05FF24FA94F0920D05D3
:100CD00010920E050FE000930F0510E11093100520
:100CE000DAE0D0931105C9E0C09312051092130504
:100CF0001092140510921505109216051092170502
:100D000041E060E188E095E00E9417031092F3044F
:100D10001092F204D092F104C092F004E092F40434
:100D2000F092F5041092F6040093F7041093F8047F
:100D3000D093F904C093FA041092FB041092FC04BF
:100D40001092FD041092FE041092FF0441E060E155
:100D500080EF94E00E9417031092E6041092E504DD
:100D60001092E9041092E8041092EC041092EB0443
:100D70001092EF041092EE0480E094E0CEE5D4E00F
:100D800044EE54E021E030E0B7E0EB2EF12C14E625
:100D9000C12ED12C03E010E064E170E0E0E1BE2E52
:100DA000EEE5F1E0DC0101900D92BA94E1F7FCE090
:100DB000BF2EEEE6F1E0DC01509601900D92BA9460
:100DC000E1F7FC017C96138212821582148237832C
:100DD00026833187208713861286358724873787B5
:100DE0002687F18AE08AD38AC28A7696CE17DF07F1
:100DF00051F7198308831B821A821D821C827F830C
:100E00006E831D861C86198A188A1B8A1A8A8E5838
:100E10009F4FCE58DF4F4817590709F0BFCF1092A8
:100E2000FE031092FF031092F8031092F903E0EC16
:100E3000F2E08FEF9FEF13821282118610861786E1
:100E40001686158A148A118E108E938F828F13A2A4
:100E500012A215A614A617AA16AADF01A05CBF4FFE
:100E600011961C921E92149611961C921E92129626
:100E70001D921C92E45BFF4F23E0E03FF207D9F69E
:100E80001092F1031092F0039093F3038093F20316
:100E900010926F0210926E021092870210928602D8
:100EA00010929F0210929E021092B7021092B60208
:100EB0001092270210922602109229021092280204
:100EC00010922B0210922A0281E090E090932D0262
:100ED00080932C02909339028093380210923B0247
:100EE00010923A0210923D0210923C0210923F0280
:100EF00010923E021092410210924002109245025E
:100F00001092440210924702109246021092490237
:100F10001092480290934B0280934A02909357029A
:100F200080935602109259021092580210925B025E
:100F300010925A0210925D0210925C0210925F02AF
:100F400010925E02DF91CF911F910F91FF90EF9071
:100F5000DF90CF90BF900895789484B5826084BD6F
:100F600084B5816084BD85B5826085BD85B58160AD
:100F700085BD80916E00816080936E00109281002B
:100F800080918100826080938100809181008160E6
:100F900080938100809180008160809380008091A7
:100FA000B10084608093B1008091B0008160809333
:100FB000B00080917A00846080937A0080917A00FA
:100FC000826080937A0080917A00816080937A00B9
:100FD00080917A00806880937A001092C10061E06D
:100FE0008DE00E94E30161E083E00E94E30161E0A3
:100FF00083E00E94B10161E08DE00E94B10188E1CF
:1010000092E09093FB038093FA031092FE031092F8
:10101000FF0380E18093FC0392E09093FD032AEFAD
:1010200033E030931F0220931E0220E031E0309322
:10103000F5032093F4038093F60384E08093F70391
:1010400084EF93E0909313028093120280911A022E
:1010500090911B02909315028093140282E192E01A
:1010600090931B0280931A028091160290911702AE
:101070008230910509F44FC0209140023091410225
:10108000232B09F4ECC020915E0230915F02232BE8
:1010900009F041C021E030E001969093170280935F
:1010A00016028EE1829FE001839FD00D1124CC5D5A
:1010B000DD4F80E091E09983888380EF94E09B8707
:1010C0008A8702E010E01D870C8780E190E09F870F
:1010D0008E87198B088B9B8B8A8B81E090E09D8B90
:1010E0008C8B1B821A821D821C82198618861F8A8D
:1010F0001E8A198E188E9D8F8C8F42E060E180EFE2
:1011000094E00E941703D0931D02C0931C021D8F10
:101110000C8F0E94B203812C912C5401839444249F
:101120004A94542C50E0652E50E0752EE0911E023A
:10113000F0911F028481082E000C990BC0911C02B3
:10114000D0911D022581022E000C330B3F8B2E8B7C
:10115000998F888F8E859F858131910514F080E16C
:1011600090E09B8B8A8B8C859D858530910514F052
:1011700084E090E0998B888B808191810E948D0022
:10118000DC01ED91FC91228135813203C0011124F3
:101190002481820F911D27FD9A9520813181820F34
:1011A000931F998388830884D985C02DC80FD91FC0
:1011B00010E000E0E0911C02F0911D02848595850D
:1011C000081719070CF055C082859385E02F04306D
:1011D00008F0E3E0DC0153962C91E21710F0EFEFFA
:1011E000E20FE80FF92FF11D648960680E94140373
:1011F000F12CE12CE0911C02F0911D02868597856F
:10120000E816F9069CF5208D318D82859385DC01E9
:101210004D915C91DA012D903C90E216F30614F1A9
:1012200042895389240F351FE216F306DCF4268920
:10123000378902171307B4F040895189240F351FED
:10124000021713077CF46E01BFEFCB1ADB0A68812B
:10125000F1010995E601FFEFEF1AFF0ACBCF30E06D
:1012600020E01ACF60E2F1010995F5CF0F5F1F4F23
:10127000A1CF0E94B20321E020939E058FB7F8947E
:10128000409120025091210260912202709123022C
:101290008FBF80918E0590918F05A0919005B091A0
:1012A0009105481B590B6A0B7B0B80919A05909115
:1012B0009B05B0E0A0E084179507A607B70708F0E4
:1012C00029C1C0E080919805C81760F4E0919405A9
:1012D000F0919505EC0FF11D62E080810E94E30121
:1012E000CF5FF0CF312C80919905381608F05FC0A0
:1012F000032D10E0E0919605F0919705E00FF11FA6
:1013000061E080810E94E301E0919605F0919705EC
:10131000E00FF11F60E080810E94B101D501C4019E
:10132000032C04C0880F991FAA1FBB1F0A94D2F771
:101330006C017C01E094F094212C80919805281692
:10134000F8F4C22DD0E0E0919405F0919505EC0FF2
:10135000FD1F80810E9485012496CC0FDD1FCE5C8D
:10136000DA4F892B41F4888199818C299D299983B1
:1013700088832394E2CF888199818E219F21F7CFA2
:10138000E0919605F0919705E00FF11F61E08081F3
:101390000E94B1018091960590919705080F191F41
:1013A00060E0D8018C910E94E30133949CCF02E36A
:1013B00015E0E8018F8D98A1892B21F41C8E5E8E9B
:1013C0004D8E19A22696EEE6F5E0EC17FD0791F793
:1013D000D12C80919805D81608F053C0C12CED2C63
:1013E000F12CEE0CFF1CC701865C9A4F7C0120910A
:1013F0009905C21608F043C0D7016D917C910C2C61
:1014000002C0769567950A94E2F7D29E9001112466
:101410002C0D311DE2E3F5E080E0458D568D24175B
:10142000350709F41AC18F5F36968A30B1F760FF2D
:1014300024C0E2E3F5E090E080E0448D411118C063
:10144000E0919205F0919305E20FF31F4081B6E021
:10145000B89FF001B99FF00D1124EE5CFA4F448F54
:10146000368F258F10A2178E61E00E94BF0005C045
:10147000019636968A30910501F7C394B8CFD3947C
:10148000A8CF80E0F80191A19111892F0A5F1F4F29
:10149000C017D107B9F79FB7F89440912002509137
:1014A000210260912202709123029FBF40938E051A
:1014B00050938F056093900570939105882351F1A7
:1014C00080915305882331F1809151059091520507
:1014D000019701F5E0914E05E053E431E8F40E2E5A
:1014E000000CFF0BEA58F54F0C94780B090B8C0A93
:1014F000FD0A8C0AC60AAC0AE20A8C0A930A8C0A14
:101500008C0A8C0A8C0A210B8C0A8C0A8C0A8C0A95
:101510008C0A150B10929E056114710409F406CE15
:101520000E94000003CEE0911E02F0911F0225816F
:10153000422F022E000C550B838190E0481759076B
:101540005CF74F5F5F4F9195819591094817590757
:101550001CF32F5F2583E0CFE0911E02F0911F0264
:101560006581262F062E000C330B838190E0A901A4
:1015700041505109841795077CF291958195910905
:10158000821793074CF661506583C6CFE0911E0227
:10159000F0911F026481262F062E000C330B8281EE
:1015A00090E0A90141505109841795070CF4B4CF7C
:1015B000919581959109821793070CF0ADCF6150F9
:1015C0006483AACFE0911E02F0911F022481422F72
:1015D000022E000C550B828190E0481759070CF041
:1015E0009BCF4F5F5F4F91958195910948175907A0
:1015F0000CF492CF2F5F24838FCFE0911E02F091E5
:101600001F02808191810E948D00DC01ED91FC918F
:101610008ECFE0911E02F0911F02808191810E9485
:101620008D00DC01ED91FC919BCFE0911E02F091C9
:101630001F02808191810E948D00DC01ED91FC915F
:10164000A9CFE0911E02F0911F02808191810E943A
:101650008D00DC01ED91FC91B9CF617006CFCF9385
:10166000DF93C2E3D5E0269788819981009711F036
:101670000E941A0C85E0C032D807A9F7DF91CF91FC
:1016800008952F923F924F925F926F927F928F9226
:101690009F92AF92BF92CF92DF92EF92FF920F9301
:1016A0001F93CF93DF93CDB7DEB7CA1BDB0B0FB60B
:1016B000F894DEBF0FBECDBF09942A8839884888C8
:1016C0005F846E847D848C849B84AA84B984C8845E
:1016D000DF80EE80FD800C811B81AA81B981CE0F55
:1016E000D11D0FB6F894DEBF0FBECDBFED0108953A
:1016F000EE0FFF1F0590F491E02D09940F931F93B7
:10170000CF93DF938230910510F482E090E0E09176
:10171000A305F091A40530E020E0B0E0A0E0309710
:1017200099F42115310509F44AC0281B390B2430DE
:101730003105D8F58A819B816115710589F1FB011D
:1017400093838283FE0111C0408151810281138104
:1017500048175907E0F04817590799F4109761F0B6
:1017600012960C93129713961C933296CF01DF9129
:10177000CF911F910F9108950093A3051093A40595
:10178000F4CF2115310551F04217530738F0A90164
:10179000DB019A01BD01DF01F801C1CFEF01F9CFF3
:1017A0009093A4058093A305CDCFFE01E20FF31F14
:1017B000819391932250310939832883D7CF209187
:1017C000A1053091A205232B41F420915A013091BB
:1017D0005B013093A2052093A1052091580130911F
:1017E00059012115310541F42DB73EB740915C01F7
:1017F00050915D01241B350BE091A105F091A205EC
:10180000E217F307A0F42E1B3F0B2817390778F0D7
:10181000AC014E5F5F4F2417350748F04E0F5F1F36
:101820005093A2054093A105819391939FCFF0E03F
:10183000E0E09CCFCF93DF930097E9F0FC01329773
:1018400013821282A091A305B091A405ED0130E0AE
:1018500020E01097A1F420813181820F931F209105
:10186000A1053091A2052817390709F061C0F0934E
:10187000A205E093A105DF91CF910895EA01CE176B
:10188000DF07E8F54A815B819E0141155105B1F7FB
:10189000E901FB83EA8349915991C40FD51FEC17E5
:1018A000FD0761F4808191810296840F951FE90103
:1018B00099838883828193819B838A83F0E0E0E02F
:1018C00012968D919C9113970097B9F52D913C91AB
:1018D0001197CD010296820F931F2091A10530919F
:1018E000A2052817390739F6309751F51092A4054B
:1018F0001092A305B093A205A093A105BCCFD383FA
:10190000C28340815181840F951FC817D90761F4A4
:101910004E5F5F4F88819981480F591F51834083E3
:101920008A819B81938382832115310509F0B0CF91
:10193000F093A405E093A3059ECFFD01DC01C0CF89
:1019400013821282D7CFB0E0A0E0E9EAFCE00C9469
:10195000430B8C01009751F4CB010E947E0B8C014C
:10196000C801CDB7DEB7E0E10C945F0BFC01E60FD8
:10197000F71F9C0122503109E217F30708F49DC0BC
:10198000D901CD91DC911197C617D70798F0C530D2
:10199000D10530F3CE0104978617970708F3C61BCD
:1019A000D70B2297C193D1936D937C93CF010E9463
:1019B0001A0CD6CF5B01AC1ABD0A4C018C0E9D1ED1
:1019C000A091A305B091A405512C412CF12CE12C40
:1019D000109731F58091A1059091A2058815990580
:1019E00009F05CC04616570608F058C080915801AF
:1019F00090915901009741F48DB79EB740915C01D9
:101A000050915D01841B950BE817F90708F055C04C
:101A1000F093A205E093A105F90171836083A0CF43
:101A20008D919C91119712966C90129713967C90C1
:101A30001397A815B90559F56C0142E0C40ED11CE5
:101A4000CA14DB0420F1AC014A195B09DA011296D1
:101A5000159780F06282738251834083D9016D9320
:101A60007C93E114F10471F0D7011396FC93EE938B
:101A7000129776CF22968C0F9D1FF9019183808358
:101A8000F301EFCFF093A405E093A30569CF4816C7
:101A9000590608F42C017D01D3019ACFCB010E9495
:101AA0007E0B7C01009749F0AE01B8010E94600DE9
:101AB000C8010E941A0C870153CF10E000E050CFFC
:101AC000FB01DC0102C001900D9241505040D8F75B
:101AD0000895FB01DC0101900D920020E1F70895CB
:101AE00010E0C2E6D0E004C0FE010E94780B21960F
:101AF000C336D107C9F7F894FFCF636363636363A9
:101B00006363636363636363630064646464646402
:101B100064646464646464646400636363636363EF
:101B200063636363636363636300646464646464E2
:101B300064646464646464646400060504020C0BF9
:101B400008073738392F3435362A3132332D4330B0
:101B50003D2B0000A50580002020202020202020F3
:101B600020202020202020002020002020002020D5
:101B700000202000000000000E032F0175027402F7
:101B8000000000001F02DF01AE01504F4C0045581D
:061B900050004F4E45001D
:107E0000112484B714BE81FFF0D085E080938100F7
:107E100082E08093C00088E18093C10086E0809377
:107E2000C20080E18093C4008EE0C9D0259A86E02C
:107E300020E33CEF91E0309385002093840096BBD3
:107E4000B09BFECF1D9AA8958150A9F7CC24DD24C4
:107E500088248394B5E0AB2EA1E19A2EF3E0BF2EE7
:107E6000A2D0813461F49FD0082FAFD0023811F036
:107E7000013811F484E001C083E08DD089C08234E0
:107E800011F484E103C0853419F485E0A6D080C0E4
:107E9000853579F488D0E82EFF2485D0082F10E0AE
:107EA000102F00270E291F29000F111F8ED06801E7
:107EB0006FC0863521F484E090D080E0DECF843638
:107EC00009F040C070D06FD0082F6DD080E0C81688
:107ED00080E7D80618F4F601B7BEE895C0E0D1E017
:107EE00062D089930C17E1F7F0E0CF16F0E7DF06D8
:107EF00018F0F601B7BEE89568D007B600FCFDCFD4
:107F0000A601A0E0B1E02C9130E011968C91119780
:107F100090E0982F8827822B932B1296FA010C0160
:107F200087BEE89511244E5F5F4FF1E0A038BF0790
:107F300051F7F601A7BEE89507B600FCFDCF97BE46
:107F4000E89526C08437B1F42ED02DD0F82E2BD052
:107F50003CD0F601EF2C8F010F5F1F4F84911BD097
:107F6000EA94F801C1F70894C11CD11CFA94CF0C13
:107F7000D11C0EC0853739F428D08EE10CD085E9AC
:107F80000AD08FE07ACF813511F488E018D01DD067
:107F900080E101D065CF982F8091C00085FFFCCF94
:107FA0009093C60008958091C00087FFFCCF809118
:107FB000C00084FD01C0A8958091C6000895E0E648
:107FC000F0E098E1908380830895EDDF803219F02E
:107FD00088E0F5DFFFCF84E1DECF1F93182FE3DFCA
:107FE0001150E9F7F2DF1F91089580E0E8DFEE27F6
:047FF000FF270994CA
:027FFE00040479
:00000001FF
