:100000000C9435000C945D000C945D000C945D0024
:100010000C945D000C945D000C945D000C945D00EC
:100020000C945D000C945D000C945D000C945D00DC
:100030000C945D000C945D000C945D000C945D00CC
:100040000C9457030C945D000C9425030C94FF0250
:100050000C945D000C945D000C945D000C945D00AC
:100060000C945D000C945D00A10311241FBECFEF22
:10007000D8E0DEBFCDBF13E0A0E0B1E0ECEBFCE0E8
:1000800002C005900D92A832B107D9F723E0A8E28B
:10009000B3E001C01D92A93DB207E1F710E0C5E34E
:1000A000D0E004C02197FE010E945606C433D10758
:1000B000C9F70E94DC030C945C060C9400002FB777
:1000C000F89460912D0370912E0380912F039091ED
:1000D00030032FBF0895AF92BF92CF92DF92EF927D
:1000E000FF920F931F93CF93DF936C017B018B01E2
:1000F000040F151FEB015E01AE18BF08C017D10732
:1001000059F06991D601ED91FC910190F081E02DBB
:10011000C6010995892B79F7C501DF91CF911F9110
:100120000F91FF90EF90DF90CF90BF90AF90089528
:10013000FC01538D448D252F30E0842F90E0821BED
:10014000930B541710F0CF96089501970895FC0172
:10015000918D828D981761F0A28DAE0FBF2FB11DCA
:100160005D968C91928D9F5F9F73928F90E0089522
:100170008FEF9FEF0895FC01918D828D981731F0DC
:10018000828DE80FF11D858D90E008958FEF9FEF30
:100190000895FC01918D228D892F90E0805C9F4F06
:1001A000821B91098F739927089585E393E00E943C
:1001B000C90021E0892B09F420E0822F089580E016
:1001C00090E0892B29F00E94D50081110C94000049
:1001D0000895FC01A48DA80FB92FB11DA35ABF4FDC
:1001E0002C91848D90E001968F739927848FA68936
:1001F000B7892C93A089B1898C91837080648C938A
:10020000938D848D981306C00288F389E02D808138
:100210008F7D80830895EF92FF920F931F93CF936A
:10022000DF93EC0181E0888F9B8D8C8D98131AC031
:10023000E889F989808185FF15C09FB7F894EE8918
:10024000FF896083E889F989808183708064808375
:100250009FBF81E090E0DF91CF911F910F91FF90C0
:10026000EF900895F62E0B8D10E00F5F1F4F0F7368
:100270001127E02E8C8D8E110CC00FB607FCFACF23
:10028000E889F989808185FFF5CFCE010E94E900D8
:10029000F1CFEB8DEC0FFD2FF11DE35AFF4FF082F4
:1002A0009FB7F8940B8FEA89FB8980818062CFCF5A
:1002B000CF93DF93EC01888D8823B9F0AA89BB899D
:1002C000E889F9898C9185FD03C0808186FD0DC088
:1002D0000FB607FCF7CF8C9185FFF2CF808185FFA9
:1002E000EDCFCE010E94E900E9CFDF91CF910895D3
:1002F000FC0101900020E9F73197AF01481B590B31
:10030000BC0185E393E00C946B008F929F92AF92B7
:10031000BF920F931F93CF93DF93CDB7DEB7A19713
:100320000FB6F894DEBF0FBECDBF19A2423008F45D
:100330004AE08E010F5D1F4F842E912CB12CA12C11
:10034000A50194010E943406E62FB901CA01EA30E2
:10035000F4F4E05DD801EE938D01232B242B252BA3
:1003600079F790E080E0109719F0CD010E947801B4
:10037000A1960FB6F894DEBF0FBECDBFDF91CF912F
:100380001F910F91BF90AF909F908F900895E95C5F
:10039000E1CFCF92DF92EF92FF92CF93DF936B0189
:1003A0007C016DE285E393E00E940B01EC0166277E
:1003B0007727CB016C197D098E099F094AE00E94BD
:1003C00085018C0F9D1FDF91CF91FF90EF90DF9003
:1003D000CF900895009711F00C94780190E080E0A0
:1003E0000895CF93DF93D0E0C0E0009719F00E940A
:1003F0007801EC018CE291E00E9478018C0F9D1F46
:10040000DF91CF910895EF92FF920F931F93CF93B7
:10041000DF938C017C01D0E0C0E089E0E80EF11CA4
:10042000F80182819381C817D907E4F48FE291E043
:100430000E94EA01F701808191810E94EA018AE429
:1004400091E00E94EA01F801808191810E94EA0115
:100450008EE591E00E94F10183E691E00E94F101B6
:100460002196DBCFDF91CF911F910F91FF90EF90FD
:1004700008958F929F92AF92BF92CF92DF92EF92A8
:10048000FF920F931F93CF93DF938C01EC01D12C3C
:10049000C12CF12CE12CF80182819381C816D90678
:1004A0000CF06EC08885882349F090E080E0E80E6B
:1004B000F91EFFEFCF1ADF0A2996EDCF0E945F00E9
:1004C0008C809D80092C000CAA08BB08AB01BC01E4
:1004D000481959096A097B098E819F81092E000CF0
:1004E000AA0BBB0B481759076A077B07F0F287E78F
:1004F00091E00E94EA010E945F008C809D80092C9F
:10050000000CAA08BB08681979098A099B094AE006
:100510000E9485018CE291E00E9478018EE891E0D2
:100520000E94EA0189859A850E94EA018AEA91E09F
:100530000E94EA016B857C85072E000C880B990BC5
:1005400097FF1AC00E94C90187ED91E00E94EA015D
:10055000F801808191810E94EA018FE591E00E947B
:10056000F1018EEA91E00E94F1010E945F007D831B
:100570006C8381E090E09BCF4AE00E948501E4CF4C
:10058000EF2881F181EC91E00E94EA01F80162819B
:100590007381072E000C880B990B97FF1FC00E94D8
:1005A000C9018DEC91E00E94EA01F80180819181FE
:1005B0000E94F10189EE91E00E94F1018CEF91E03F
:1005C000DF91CF911F910F91FF90EF90DF90CF902F
:1005D000BF90AF909F908F900C94F1014AE00E94E1
:1005E0008501DFCFDF91CF911F910F91FF90EF90A9
:1005F000DF90CF90BF90AF909F908F9008951F9203
:100600000F920FB60F9211242F933F934F935F9346
:100610006F937F938F939F93AF93BF93EF93FF93CA
:1006200085E393E00E94E900FF91EF91BF91AF91C4
:100630009F918F917F916F915F914F913F912F91FA
:100640000F900FBE0F901F9018951F920F920FB62C
:100650000F9211242F938F939F93EF93FF93E09129
:100660004503F09146038081E0914B03F0914C03E8
:1006700082FD1BC0908180914E038F5F8F7320910C
:100680004F03821741F0E0914E03F0E0EB5CFC4F2A
:10069000958F80934E03FF91EF919F918F912F91B2
:1006A0000F900FBE0F901F9018958081F4CF1F926E
:1006B0000F920FB60F9211242F933F938F939F9316
:1006C000AF93BF9380912D0390912E03A0912F03A0
:1006D000B091300330912C0323E0230F2D3758F5D0
:1006E0000196A11DB11D20932C0380932D0390939F
:1006F0002E03A0932F03B093300380912803909191
:100700002903A0912A03B0912B030196A11DB11DCD
:100710008093280390932903A0932A03B0932B037B
:10072000BF91AF919F918F913F912F910F900FBEED
:100730000F901F90189526E8230F0296A11DB11D5A
:10074000D2CFE5E3F3E01382128288EE93E0A0E0DB
:10075000B0E084839583A683B7838EE191E0918393
:10076000808385EC90E09587848784EC90E0978780
:10077000868780EC90E0918B808B81EC90E0938B6E
:10078000828B82EC90E0958B848B86EC90E0978B4B
:10079000868B118E128E138E148EE2EDF3E080E1C3
:1007A00097E292838183148213828FE590E096838F
:1007B000858381E080830895789484B5826084BDC8
:1007C00084B5816084BD85B5826085BD85B5816055
:1007D00085BD80916E00816080936E0010928100D3
:1007E000809181008260809381008091810081608E
:1007F000809381008091800081608093800080914F
:10080000B10084608093B1008091B00081608093DA
:10081000B00080917A00846080937A0080917A00A1
:10082000826080937A0080917A00816080937A0060
:1008300080917A00806880937A001092C100E091E4
:100840004503F091460382E08083E0914103F091FB
:1008500042031082E0914303F091440380E18083DE
:1008600010924D03E0914903F0914A0386E08083A2
:10087000E0914703F0914803808180618083E0919B
:100880004703F0914803808188608083E0914703AB
:10089000F0914803808180688083E0914703F09164
:1008A000480380818F7D808384E192E00E94F10182
:1008B0008CE292E00E94F10182E592E00E94F10157
:1008C00089E692E00E94F101809131039091320318
:1008D000823091050CF44EC080E892E00E94F10154
:1008E00083EA92E00E94F1011092080115E4C0E051
:1008F000D0E08091D203882309F44FC0E091D70360
:10090000F091D8030995C090D503D090D6030D2C53
:10091000000CEE08FF08AB01BC014C195D096E0923
:100920007F098091D3039091D403092E000CAA0B68
:10093000BB0B84179507A607B70778F5E091D70397
:10094000F091D80309957093D6036093D50382EC98
:1009500092E00E94F1018CED92E00E94F101809101
:100960003303909134030E94030283EF92E00E94CC
:10097000F101BFCF9C012F5F3F4F30933203209393
:100980003103880F991FFC01ED5CFC4F8DE091E075
:10099000918380830E940302A7CF8DE091E00E94A3
:1009A000390210937C0080917A00806480937A00F1
:1009B00080917A0086FDFCCF80917800609179006B
:1009C000762F682F072E000C880B990B0E943B0591
:1009D00020E030E048EC5CE30E949F050E940305A4
:1009E00070930C0160930B0180E091E00E9439024A
:1009F000209709F47ECF0E94D500882309F479CF8F
:100A00000E94000076CF0E940A056894B1110C94F0
:100A1000990508950E947E0588F09F5798F0B92F98
:100A20009927B751B0F0E1F0660F771F881F991F23
:100A30001AF0BA95C9F714C0B13091F00E94980528
:100A4000B1E008950C949805672F782F8827B85F38
:100A500039F0B93FCCF3869577956795B395D9F77B
:100A60003EF490958095709561957F4F8F4F9F4F85
:100A70000895E89409C097FB3EF490958095709591
:100A800061957F4F8F4F9F4F9923A9F0F92F96E9DA
:100A9000BB279395F695879577956795B795F1114F
:100AA000F8CFFAF4BB0F11F460FF1BC06F5F7F4FEC
:100AB0008F4F9F4F16C0882311F096E911C07723FE
:100AC00021F09EE8872F762F05C0662371F096E807
:100AD000862F70E060E02AF09A95660F771F881FD6
:100AE000DAF7880F9695879597F9089557FD9058EE
:100AF000440F551F59F05F3F71F04795880F97FBE2
:100B0000991F61F09F3F79F087950895121613069B
:100B10001406551FF2CF4695F1DF08C016161706CA
:100B20001806991FF1CF86957105610508940895FF
:100B3000E894BB2766277727CB0197F908950E9491
:100B4000B2050C9423060E94150638F00E941C067C
:100B500020F0952311F00C940C060C94120611242D
:100B60000C9499050E94760570F3959FC1F3950F3B
:100B700050E0551F629FF001729FBB27F00DB11D21
:100B8000639FAA27F00DB11DAA1F649F6627B00DB1
:100B9000A11D661F829F2227B00DA11D621F739F9A
:100BA000B00DA11D621F839FA00D611D221F749FA8
:100BB0003327A00D611D231F849F600D211D822FEF
:100BC000762F6A2F11249F5750409AF0F1F0882316
:100BD0004AF0EE0FFF1FBB1F661F771F881F915043
:100BE0005040A9F79E3F510580F00C940C060C94E0
:100BF00099055F3FE4F3983ED4F386957795679522
:100C0000B795F795E7959F5FC1F7FE2B880F911D6C
:100C10009695879597F9089597F99F6780E870E012
:100C200060E008959FEF80EC089500240A94161662
:100C3000170618060906089500240A9412161306CA
:100C4000140605060895092E0394000C11F4882358
:100C500052F0BB0F40F4BF2B11F460FF04C06F5F74
:100C60007F4F8F4F9F4F0895A1E21A2EAA1BBB1BE7
:100C7000FD010DC0AA1FBB1FEE1FFF1FA217B30768
:100C8000E407F50720F0A21BB30BE40BF50B661F7E
:100C9000771F881F991F1A9469F760957095809542
:100CA00090959B01AC01BD01CF010895EE0FFF1F90
:0C0CB0000590F491E02D0994F894FFCF1A
:100CBC000803010000008813010C03000017030156
:100CCC000000008813011D030000000000000B0150
:100CDC006B0098005801C900A700BB000D0A005317
:100CEC0075736372696269656E646F206C612076DE
:100CFC0061726961626C65202700272064656C2035
:100D0C00646973706F73697469766F202700272E7E
:100D1C002E2E005375736372697063696F6E206554
:100D2C007869746F7361005469656D706F207472AB
:100D3C00616E736375727269646F203A200045733B
:100D4C006372696269656E646F204A534F4E2E2040
:100D5C005661726961626C652000203D200045730C
:100D6C006372697475726120657869746F73612E32
:100D7C00005075626C6963616E646F20002076614F
:100D8C00726961626C65732064656C206469737050
:100D9C006F73697469766F20005075626C6963615A
:100DAC006E646F204A534F4E2E2E2E005075626C7F
:100DBC00696361646F20657869746F73616D656ECA
:100DCC0074652E00436F6E656374616E646F73653A
:100DDC0020616C20576946692E2E2E00436F6E657C
:100DEC00637461646F2061206C61207265642057AC
:100DFC0069466920657869746F73616D656E746599
:100E0C002E00436F6E6669677572616E646F204267
:100E1C00726F6B65722E2E2E00436F6E666967754E
:100E2C00726163696F6E20657869746F73612E00EF
:100E3C004C696D69746520646520737573637269A0
:100E4C007063696F6E657320616C63616E7A616447
:100E5C006F2E0050756564652061756D656E7461EB
:100E6C00726C6F20656E20556269646F74732E68A6
:100E7C002E005265636F6E656374616E646F2061E2
:100E8C0020556269646F74732E2E2E00436F6E654D
:100E9C00637461646F20657869746F73616D656EDE
:100EAC007465005375736372697063696F6E206546
:100EBC007869746F73612E006C647200696E74656E
:100ECC006E736964616400626F746F6E007072653A
:080EDC0073696F6E61646F0021
:00000001FF
