:100000000C9453000C947B000C947B000C947B00AC
:100010000C947B000C947B000C947B000C947B0074
:100020000C947B000C947B000C947B000C947B0064
:100030000C947B000C947B000C947B000C947B0054
:100040000C94A2030C947B000C9470030C944A0350
:100050000C947B000C947B000C947B000C947B0034
:100060000C947B000C947B0000000000250028000D
:100070002B0000000000240027002A0004040404D0
:100080000404040402020202020203030303030342
:10009000010204081020408001020408102001021F
:1000A00004081020EC0311241FBECFEFD8E0DEBF00
:1000B000CDBF12E0A0E0B1E0E2E3FDE002C00590B8
:1000C0000D92A83EB107D9F723E0A8EEB2E001C037
:1000D0001D92A539B207E1F710E0C3E5D0E004C0F6
:1000E0002197FE010E949106C235D107C9F70E94EF
:1000F0003F040C9497060C9400002FB7F89460917D
:10010000ED027091EE028091EF029091F0022FBF0C
:100110000895AF92BF92CF92DF92EF92FF920F932A
:100120001F93CF93DF936C017B018B01040F151F8D
:10013000EB015E01AE18BF08C017D10759F06991F5
:10014000D601ED91FC910190F081E02DC601099559
:10015000892B79F7C501DF91CF911F910F91FF9006
:10016000EF90DF90CF90BF90AF900895FC01538D3A
:10017000448D252F30E0842F90E0821B930B541781
:1001800010F0CF96089501970895FC01918D828D0E
:10019000981761F0A28DAE0FBF2FB11D5D968C91A7
:1001A000928D9F5F9F73928F90E008958FEF9FEFE6
:1001B0000895FC01918D828D981731F0828DE80FA2
:1001C000F11D858D90E008958FEF9FEF0895FC015C
:1001D000918D228D892F90E0805C9F4F821B910929
:1001E0008F739927089581EF92E00E94E70021E044
:1001F000892B09F420E0822F089580E090E0892B7C
:1002000029F00E94F30081110C9400000895FC0174
:10021000A48DA80FB92FB11DA35ABF4F2C91848D67
:1002200090E001968F739927848FA689B7892C93C4
:10023000A089B1898C91837080648C93938D848D17
:10024000981306C00288F389E02D80818F7D80831A
:100250000895EF92FF920F931F93CF93DF93EC01DA
:1002600081E0888F9B8D8C8D98131AC0E889F9895D
:10027000808185FF15C09FB7F894EE89FF89608360
:10028000E889F98980818370806480839FBF81E0E1
:1002900090E0DF91CF911F910F91FF90EF90089523
:1002A000F62E0B8D10E00F5F1F4F0F731127E02EFE
:1002B0008C8D8E110CC00FB607FCFACFE889F98936
:1002C000808185FFF5CFCE010E940701F1CFEB8D34
:1002D000EC0FFD2FF11DE35AFF4FF0829FB7F8940A
:1002E0000B8FEA89FB8980818062CFCFCF93DF9328
:1002F000EC01888D8823B9F0AA89BB89E889F9893E
:100300008C9185FD03C0808186FD0DC00FB607FC72
:10031000F7CF8C9185FFF2CF808185FFEDCFCE01A5
:100320000E940701E9CFDF91CF91089580E4809387
:100330007C0080917A00806480937A0080917A00BA
:1003400086FDFCCF8091780060917900762F682F30
:10035000072E000C880B990B0E94760520E030E0F8
:1003600048EC5DE30E94DA050E943E05CB0108954A
:10037000FC0101900020E9F73197AF01481B590BB0
:10038000BC0181EF92E00C9489008F929F92AF9212
:10039000BF920F931F93CF93DF93CDB7DEB7A19793
:1003A0000FB6F894DEBF0FBECDBF19A2423008F4DD
:1003B0004AE08E010F5D1F4F842E912CB12CA12C91
:1003C000A50194010E946F06E62FB901CA01EA3027
:1003D000F4F4E05DD801EE938D01232B242B252B23
:1003E00079F790E080E0109719F0CD010E94B801F4
:1003F000A1960FB6F894DEBF0FBECDBFDF91CF91AF
:100400001F910F91BF90AF909F908F900895E95CDE
:10041000E1CFCF92DF92EF92FF92CF93DF936B0108
:100420007C016DE281EF92E00E942901EC016627D8
:100430007727CB016C197D098E099F094AE00E943C
:10044000C5018C0F9D1FDF91CF91FF90EF90DF9042
:10045000CF900895009711F00C94B80190E080E0DF
:100460000895CF93DF93D0E0C0E0009719F00E9489
:10047000B801EC018EE291E00E94B8018C0F9D1F43
:10048000DF91CF910895EF92FF920F931F93CF9337
:10049000DF937C01EC0110E000E0F70182819381A1
:1004A00008171907ECF481E391E00E942A0289857C
:1004B0009A850E942A028CE491E00E942A02F701A8
:1004C000808191810E942A0280E691E00E9431029F
:1004D00085E691E00E9431020F5F1F4F2A96DDCF23
:1004E000DF91CF911F910F91FF90EF9008958F9220
:1004F0009F92AF92BF92CF92DF92EF92FF920F93B3
:100500001F93CF93DF938C01EC01D12CC12CF12CE4
:10051000E12CF80182819381C816D9060CF07BC0CA
:100520008885882349F090E080E0E80EF91EFFEF0F
:10053000CF1ADF0A2A96EDCF0E947D008C809D8025
:10054000092C000CAA08BB08AB01BC0148195909C9
:100550006A097B098E819F81092E000CAA0BBB0BB7
:10056000481759076A077B07F0F289E791E00E9474
:100570002A020E947D008C809D80092C000CAA0814
:10058000BB08681979098A099B094AE00E94C501DC
:100590008EE291E00E94B80180E991E00E942A0277
:1005A00089859A850E942A028CEA91E00E942A029B
:1005B0008B85882341F18C859D85BC01990F880B23
:1005C000990B97FF24C00E94090289ED91E00E94D7
:1005D0002A02F801808191810E942A0281E691E03D
:1005E0000E9431028B85811103C0EC85FD85099540
:1005F00080EB91E00E9431020E947D007D836C833C
:1006000081E090E092CFEC85FD850995D6CF4AE058
:100610000E94C501DACFEF2881F183EC91E00E94BE
:100620002A02F80162817381072E000C880B990B56
:1006300097FF1FC00E9409028FEC91E00E942A02DE
:10064000F801808191810E9431028BEE91E00E943D
:1006500031028EEF91E0DF91CF911F910F91FF90CA
:10066000EF90DF90CF90BF90AF909F908F900C94C1
:1006700031024AE00E94C501DFCFDF91CF911F9187
:100680000F91FF90EF90DF90CF90BF90AF909F9031
:100690008F9008951F920F920FB60F9211242F93EF
:1006A0003F934F935F936F937F938F939F93AF93FA
:1006B000BF93EF93FF9381EF92E00E940701FF91B8
:1006C000EF91BF91AF919F918F917F916F915F91CA
:1006D0004F913F912F910F900FBE0F901F90189543
:1006E0001F920F920FB60F9211242F938F939F9307
:1006F000EF93FF93E0910103F09102038081E09179
:100700000703F091080382FD1BC0908180910A03CA
:100710008F5F8F7320910B03821741F0E0910A03E2
:10072000F0E0EF50FD4F958F80930A03FF91EF911A
:100730009F918F912F910F900FBE0F901F90189542
:100740008081F4CF1F920F920FB60F9211242F9336
:100750003F938F939F93AF93BF938091ED029091BE
:10076000EE02A091EF02B091F0023091EC0223E092
:10077000230F2D3758F50196A11DB11D2093EC02D2
:100780008093ED029093EE02A093EF02B093F002FB
:100790008091E8029091E902A091EA02B091EB0207
:1007A0000196A11DB11D8093E8029093E902A093E8
:1007B000EA02B093EB02BF91AF919F918F913F916D
:1007C0002F910F900FBE0F901F90189526E8230FC2
:1007D0000296A11DB11DD2CFE1EFF2E01382128289
:1007E00088EE93E0A0E0B0E084839583A683B7838E
:1007F00086E191E09183808385EC90E09587848702
:1008000084EC90E09787868780EC90E0918B808BDA
:1008100081EC90E0938B828B82EC90E0958B848BC3
:1008200086EC90E0978B868B118E128E138E148E31
:10083000EEE8F3E080E197E29283818314821382F1
:100840008DE790E09683858381E080838AE0E4E20F
:10085000F1E0A2E1B1E001900D928A95E1F786E91D
:1008600091E090930D0180930C018AE0E4E0F1E0C7
:10087000A4E0B1E001900D928A95E1F70895789493
:1008800084B5826084BD84B5816084BD85B5826095
:1008900085BD85B5816085BD80916E008160809346
:1008A0006E001092810080918100826080938100AF
:1008B00080918100816080938100809180008160BF
:1008C000809380008091B10084608093B10080911A
:1008D000B00081608093B00080917A008460809342
:1008E0007A0080917A00826080937A0080917A0009
:1008F000816080937A0080917A00806880937A008A
:100900001092C100E0910103F091020382E0808324
:10091000E091FD02F091FE021082E091FF02F09161
:10092000000380E1808310920903E0910503F091B8
:10093000060386E08083E0910303F0910403808145
:1009400080618083E0910303F091040380818860DB
:100950008083E0910303F0910403808180688083A9
:10096000E0910303F091040380818F7D8083EEE9A1
:10097000F0E02491EAE8F0E084918823C1F090E06F
:10098000880F991FFC01EE58FF4FC591D491FC01CF
:10099000E859FF4FA591B4919FB7F8948881E22F51
:1009A000E0958E2388838C91E823EC939FBF86E1AA
:1009B00092E00E9431028EE292E00E94310284E5D0
:1009C00092E00E9431028BE692E00E9431028EE0BA
:1009D00091E00E944302C0E0D0E080918E03882322
:1009E000D1F1E0919303F091940309950091910363
:1009F00010919203012E000C220B330BAB01BC01B2
:100A0000401B510B620B730B80918F0390919003ED
:100A1000092E000CAA0BBB0B84179507A607B70776
:100A2000D0F4E0919303F0919403099570939203AD
:100A30006093910382E892E00E9431028CE992E097
:100A40000E94310290E080E00E94430283EB92E03A
:100A50000E943102C2CF8EE091E00E94770280E0D6
:100A600091E00E947702209709F4B7CF0E94F3002B
:100A7000882309F4B2CF0E940000AFCF0E94450541
:100A80006894B1110C94D40508950E94B90588F0BA
:100A90009F5798F0B92F9927B751B0F0E1F0660F42
:100AA000771F881F991F1AF0BA95C9F714C0B13083
:100AB00091F00E94D305B1E008950C94D305672FFF
:100AC000782F8827B85F39F0B93FCCF386957795B2
:100AD0006795B395D9F73EF490958095709561959B
:100AE0007F4F8F4F9F4F0895E89409C097FB3EF4C6
:100AF00090958095709561957F4F8F4F9F4F99236B
:100B0000A9F0F92F96E9BB279395F69587957795E8
:100B10006795B795F111F8CFFAF4BB0F11F460FFA8
:100B20001BC06F5F7F4F8F4F9F4F16C0882311F000
:100B300096E911C0772321F09EE8872F762F05C014
:100B4000662371F096E8862F70E060E02AF09A95AF
:100B5000660F771F881FDAF7880F9695879597F9A4
:100B6000089557FD9058440F551F59F05F3F71F09D
:100B70004795880F97FB991F61F09F3F79F0879504
:100B80000895121613061406551FF2CF4695F1DF8D
:100B900008C0161617061806991FF1CF869571051D
:100BA000610508940895E894BB2766277727CB0151
:100BB00097F908950E94ED050C945E060E94500678
:100BC00038F00E94570620F0952311F00C94470648
:100BD0000C944D0611240C94D4050E94B10570F3B9
:100BE000959FC1F3950F50E0551F629FF001729FD2
:100BF000BB27F00DB11D639FAA27F00DB11DAA1FE1
:100C0000649F6627B00DA11D661F829F2227B00D2D
:100C1000A11D621F739FB00DA11D621F839FA00DB8
:100C2000611D221F749F3327A00D611D231F849F08
:100C3000600D211D822F762F6A2F11249F5750405F
:100C40009AF0F1F088234AF0EE0FFF1FBB1F661FDA
:100C5000771F881F91505040A9F79E3F510580F0A3
:100C60000C9447060C94D4055F3FE4F3983ED4F30C
:100C7000869577956795B795F795E7959F5FC1F747
:100C8000FE2B880F911D9695879597F9089597F9F2
:100C90009F6780E870E060E008959FEF80EC089522
:100CA00000240A941616170618060906089500244B
:100CB0000A9412161306140605060895092E0394C5
:100CC000000C11F4882352F0BB0F40F4BF2B11F439
:100CD00060FF04C06F5F7F4F8F4F9F4F0895A1E269
:100CE0001A2EAA1BBB1BFD010DC0AA1FBB1FEE1FA6
:100CF000FF1FA217B307E407F50720F0A21BB30BF1
:100D0000E40BF50B661F771F881F991F1A9469F76C
:100D100060957095809590959B01AC01BD01CF01C8
:100D20000895EE0FFF1F0590F491E02D0994F894BB
:020D3000FFCFF3
:100D3200C80201000000881300CC02000000E20299
:100D420001000000000029018900B6007601E700D9
:100D5200C500D9000000881301D7020100000D0A66
:100D6200005375736372696269656E646F206C61AA
:100D7200207661726961626C6520270027206465B4
:100D82006C20646973706F73697469766F202700D1
:100D9200272E2E2E005375736372697063696F6E0E
:100DA20020657869746F7361005469656D706F2096
:100DB2007472616E736375727269646F203A200097
:100DC20045736372696269656E646F204A534F4E60
:100DD2002E205661726961626C652000203D200000
:100DE20045736372697475726120657869746F7393
:100DF200612E005075626C6963616E646F20002021
:100E02007661726961626C65732064656C206469E5
:100E120073706F73697469766F20005075626C69C4
:100E220063616E646F204A534F4E2E2E2E00507512
:100E3200626C696361646F20657869746F73616D58
:100E4200656E74652E00436F6E656374616E646FC8
:100E5200736520616C20576946692E2E2E00436F00
:100E62006E65637461646F2061206C6120726564D9
:100E7200205769466920657869746F73616D656E84
:100E820074652E00436F6E6669677572616E646F7A
:100E92002042726F6B65722E2E2E00436F6E666952
:100EA2006775726163696F6E20657869746F7361CB
:100EB2002E005265636F6E656374616E646F2061AC
:100EC20020556269646F74732E2E2E00436F6E6517
:100ED200637461646F20657869746F73616D656EA8
:100EE2007465005375736372697063696F6E206510
:100EF2007869746F73612E006C647200696E746538
:100F02006E73696461640070726573696F6E6164A7
:080F12006F00626F746F6E0046
:00000001FF
