:020000040000FA
:100000000C9453000C947B000C947B000C947B00AC
:100010000C947B000C947B000C947B000C947B0074
:100020000C947B000C947B000C947B000C947B0064
:100030000C947B000C947B000C947B000C947B0054
:100040000C9440040C947B000C940E040C94E80374
:100050000C947B000C947B000C947B000C947B0034
:100060000C947B000C947B0000000000250028000D
:100070002B0000000000240027002A0004040404D0
:100080000404040402020202020203030303030342
:10009000010204081020408001020408102001021F
:1000A000040810208A0411241FBECFEFD8E0DEBF61
:1000B000CDBF13E0A0E0B1E0E6E6FFE002C00590AE
:1000C0000D92A238B107D9F724E0A2E8B3E001C04D
:1000D0001D92AF34B207E1F710E0C3E5D0E004C0F1
:1000E0002197FE010E94AB07C235D107C9F70E94D4
:1000F000EE040C94B1070C9400002FB7F8946091B3
:100100008703709188038091890390918A032FBFA0
:100110000895AF92BF92CF92DF92EF92FF920F932A
:100120001F93CF93DF936C017B018B01040F151F8D
:10013000EB015E01AE18BF08C017D10759F06991F5
:10014000D601ED91FC910190F081E02DC601099559
:10015000892B79F7C501DF91CF911F910F91FF9006
:10016000EF90DF90CF90BF90AF900895FC01538D3A
:10017000448D252F30E0842F90E0821B930B541781
:1001800010F0CF96089501970895FC01918D828D0E
:10019000981761F0A28DAE0FBF2FB11D5D968C91A7
:1001A000928D9F5F9F73928F90E008958FEF9FEFE6
:1001B0000895FC01918D828D981731F0828DE80FA2
:1001C000F11D858D90E008958FEF9FEF0895FC015C
:1001D000918D228D892F90E0805C9F4F821B910929
:1001E0008F73992708958FE893E00E94E70021E03C
:1001F000892B09F420E0822F089580E090E0892B7C
:1002000029F00E94F30081110C9400000895FC0174
:10021000A48DA80FB92FB11DA35ABF4F2C91848D67
:1002200090E001968F739927848FA689B7892C93C4
:10023000A089B1898C91837080648C93938D848D17
:10024000981306C00288F389E02D80818F7D80831A
:100250000895EF92FF920F931F93CF93DF93EC01DA
:1002600081E0888F9B8D8C8D98131AC0E889F9895D
:10027000808185FF15C09FB7F894EE89FF89608360
:10028000E889F98980818370806480839FBF81E0E1
:1002900090E0DF91CF911F910F91FF90EF90089523
:1002A000F62E0B8D10E00F5F1F4F0F731127E02EFE
:1002B0008C8D8E110CC00FB607FCFACFE889F98936
:1002C000808185FFF5CFCE010E940701F1CFEB8D34
:1002D000EC0FFD2FF11DE35AFF4FF0829FB7F8940A
:1002E0000B8FEA89FB8980818062CFCFCF93DF9328
:1002F000EC01888D8823B9F0AA89BB89E889F9893E
:100300008C9185FD03C0808186FD0DC00FB607FC72
:10031000F7CF8C9185FFF2CF808185FFEDCFCE01A5
:100320000E940701E9CFDF91CF91089580E4809387
:100330007C0080917A00806480937A0080917A00BA
:1003400086FDFCCF8091780060917900762F682F30
:10035000072E000C880B990B0E94900620E030E0DD
:1003600048EC5DE30E94F4060E945806CB01089514
:10037000FC0101900020E9F73197AF01481B590BB0
:10038000BC018FE893E00C9489008F929F92AF920A
:10039000BF920F931F93CF93DF93CDB7DEB7A19793
:1003A0000FB6F894DEBF0FBECDBF19A2423008F4DD
:1003B0004AE08E010F5D1F4F842E912CB12CA12C91
:1003C000A50194010E948907E62FB901CA01EA300C
:1003D000F4F4E05DD801EE938D01232B242B252B23
:1003E00079F790E080E0109719F0CD010E94B801F4
:1003F000A1960FB6F894DEBF0FBECDBFDF91CF91AF
:100400001F910F91BF90AF909F908F900895E95CDE
:10041000E1CFCF92DF92EF92FF92CF93DF936B0108
:100420007C016DE28FE893E00E942901EC016627D0
:100430007727CB016C197D098E099F094AE00E943C
:10044000C5018C0F9D1FDF91CF91FF90EF90DF9042
:10045000CF900895CF93DF93D0E0C0E0009719F0DC
:100460000E94B801EC018EE291E00E94B8018C0F6D
:100470009D1FDF91CF910895009711F00C94B80162
:1004800090E080E00895EF92FF920F931F93CF9337
:10049000DF938C01EB017A0181E391E00E943C0241
:1004A000C8010E943C0286E491E00E943C028E0159
:1004B000EC0EFD1EE016F10641F0F80161918F018E
:1004C0008FE893E00E942901F5CF8EE291E00E942F
:1004D000B8018881803349F0813399F0DF91CF9161
:1004E0001F910F91FF90EF90089589E491E00E9491
:1004F0002A0210920D0110920C0181E080930801F4
:10050000EDCF8DE691E00E942A020E947D001092BC
:100510000D0110920C01709305016093040110927B
:100520000801DCCFEF92FF920F931F93CF93DF93DD
:100530007C01EC0110E000E0F70182819381081753
:100540001907ECF48FE891E00E943C0289859A85B6
:100550000E943C028AEA91E00E943C02F7018081FD
:1005600091810E943C028EEB91E00E942A0283EC72
:1005700091E00E942A020F5F1F4F2A96DDCFDF9184
:10058000CF911F910F91FF90EF9008954F925F923E
:100590006F927F92AF92BF92CF92DF92EF92FF92D3
:1005A0000F931F93CF93DF931F92CDB7DEB77C01DC
:1005B0008C01B12CA12CD12CC12CD70112968D917C
:1005C0009C91A816B9060CF08BC0F8018085882391
:1005D00051F090E080E0C80ED91EFFEFAF1ABF0ABD
:1005E000065F1F4FEACF0E947D00D80114964D9000
:1005F0005C901597052C000C66087708AB01BC01D0
:10060000441955096609770916968D919C91092E12
:10061000000CAA0BBB0B481759076A077B07C8F2E7
:1006200087ED91E00E943C020E947D00F801448029
:100630005580052C000C6608770864197509860931
:1006400097094AE00E94C5018EE291E00E94B8013C
:100650008EEE91E00E943C02D80119968D919C91FA
:100660000E943C028AE092E00E943C02F8018385ED
:10067000882369F184859585BC01990F880B990BB6
:1006800097FF2AC00E94090287E392E00E943C0281
:10069000F701808191810E943C028FEB91E00E94E2
:1006A0002A02D8011B968C911B97811104C01C96BD
:1006B000ED91FC9109958EE092E00E942A020E9441
:1006C0007D00F8017583648381E090E084CF048429
:1006D000F585E02D0995D0CF4AE00E94C501D4CF21
:1006E000CD2809F465C081E292E00E943C02D70166
:1006F00012966D917C91072E000C880B990B97FF39
:100700004DC00E9409028DE292E00E943C02F70176
:10071000808191810E942A0289E492E00E942A024B
:10072000D7012D913C91D901ECE3F4E090E080E019
:100730005D915523B9F141914423A1F101965417DC
:10074000B9F30197280F391F845C9B4FF901208171
:10075000DC018C91281328C080913B048983E091AF
:100760003804F091390441E050E0BE016F5F7F4FE3
:1007700082E494E00995E0913104F0913204099506
:100780007093370460933604E0913104F0913204A1
:1007900009957093300460932F0406C04AE00E94CC
:1007A000C501B1CF009769F68CE592E00E942A025C
:1007B0000F90DF91CF911F910F91FF90EF90DF90FD
:1007C000CF90BF90AF907F906F905F904F900895C3
:1007D0001F920F920FB60F9211242F933F934F93B6
:1007E0005F936F937F938F939F93AF93BF93EF9399
:1007F000FF938FE893E00E940701FF91EF91BF9173
:10080000AF919F918F917F916F915F914F913F91A8
:100810002F910F900FBE0F901F9018951F920F925F
:100820000FB60F9211242F938F939F93EF93FF9303
:10083000E0919F03F091A0038081E091A503F091E6
:10084000A60382FD1BC090818091A8038F5F8F73E8
:100850002091A903821741F0E091A803F0E0E1574D
:10086000FC4F958F8093A803FF91EF919F918F91FB
:100870002F910F900FBE0F901F9018958081F4CF8D
:100880001F920F920FB60F9211242F933F938F93C5
:100890009F93AF93BF938091870390918803A0911A
:1008A0008903B0918A033091860323E0230F2D370B
:1008B00058F50196A11DB11D2093860380938703EF
:1008C00090938803A0938903B0938A038091820355
:1008D00090918303A0918403B09185030196A11D9B
:1008E000B11D8093820390938303A0938403B093FC
:1008F0008503BF91AF919F918F913F912F910F9061
:100900000FBE0F901F90189526E8230F0296A11D89
:10091000B11DD2CFCF93DF93EFE8F3E013821282C1
:1009200088EE93E0A0E0B0E084839583A683B7834C
:1009300080E291E09183808385EC90E095878487C5
:1009400084EC90E09787868780EC90E0918B808B99
:1009500081EC90E0938B828B82EC90E0958B848B82
:1009600086EC90E0978B868B118E128E138E148EF0
:10097000CCE2D4E080E197E29A8389831C821B82D7
:1009800081E08F8388EB9BE0998788871B861A8696
:1009900081E38E8780E38F8786E0E9E8F1E0ACE3CE
:1009A000B4E001900D928A95E1F78BE0E4E7F2E084
:1009B000A2E4B4E001900D928A95E1F71AA219A27F
:1009C0008DE790E09E838D83188286E991E0909375
:1009D0001B0180931A01DF91CF910895CF93DF938C
:1009E0001F92CDB7DEB7789484B5826084BD84B59C
:1009F000816084BD85B5826085BD85B5816085BD1A
:100A000080916E00816080936E00109281008091D1
:100A10008100826080938100809181008160809359
:100A20008100809180008160809380008091B1007E
:100A300084608093B1008091B00081608093B000A9
:100A400080917A00846080937A0080917A0082603D
:100A500080937A0080917A00816080937A008091FF
:100A60007A00806880937A001092C100E0919F0321
:100A7000F091A00382E08083E0919B03F0919C03BE
:100A80001082E0919D03F0919E0380E1808310929B
:100A9000A703E091A303F091A40386E08083E09193
:100AA000A103F091A203808180618083E091A10382
:100AB000F091A203808188608083E091A103F0918E
:100AC000A203808180688083E091A103F091A2035A
:100AD00080818F7D8083EEE9F0E02491EAE8F0E008
:100AE00084918823C9F090E0880F991FFC01EE588B
:100AF000FF4F45915491FC01E859FF4FA591B491E6
:100B00009FB7F894FA0180812095822380838C918D
:100B1000E22FE823EC939FBF8FE792E00E942A0226
:100B200087E992E00E942A028DEB92E00E942A025D
:100B300083E492E0909339048093380484ED92E04A
:100B40000E942A0280918B0390918C03181619063B
:100B50000CF04BC08BEE92E00E942A028EE093E0F4
:100B60000E942A0200E010E080912C04882309F4FE
:100B70004FC0E0913104F09132040995C0902F04E8
:100B8000D09030040D2C000CEE08FF08AB01BC0126
:100B90004C195D096E097F0980912D0490912E04F6
:100BA000092E000CAA0BBB0B84179507A607B707E5
:100BB00078F5E0913104F091320409957093300496
:100BC00060932F048DE293E00E942A0287E493E071
:100BD0000E942A0280918D0390918E030E949202BE
:100BE0008EE593E00E942A02BFCF9C012F5F3F4F0A
:100BF00030938C0320938B03880F991FFC01E357DC
:100C0000FC4F80E091E0918380830E949202AACF02
:100C1000809133048823C1F1E0913104F0913204D2
:100C20000995C0903604D09037040D2C000CEE08C6
:100C3000FF08AB01BC014C195D096E097F09809169
:100C4000340490913504092E000CAA0BBB0B8417B9
:100C50009507A607B707C0F4E0913104F09132047C
:100C60000995709337046093360480913A04898320
:100C7000E0913804F091390441E050E0BE016F5F2B
:100C80007F4F82E494E0099580E091E00E94C602E3
:100C90008EE091E00E94C6020115110509F464CFAF
:100CA0000E94F300882309F45FCF0E9400005CCF0C
:100CB0000E945F066894B1110C94EE0608950E949C
:100CC000D30688F09F5798F0B92F9927B751B0F005
:100CD000E1F0660F771F881F991F1AF0BA95C9F7C0
:100CE00014C0B13091F00E94ED06B1E008950C946B
:100CF000ED06672F782F8827B85F39F0B93FCCF31E
:100D0000869577956795B395D9F73EF4909580953C
:100D1000709561957F4F8F4F9F4F0895E89409C05C
:100D200097FB3EF490958095709561957F4F8F4F1E
:100D30009F4F9923A9F0F92F96E9BB279395F69534
:100D4000879577956795B795F111F8CFFAF4BB0FB2
:100D500011F460FF1BC06F5F7F4F8F4F9F4F16C016
:100D6000882311F096E911C0772321F09EE8872FA0
:100D7000762F05C0662371F096E8862F70E060E05C
:100D80002AF09A95660F771F881FDAF7880F9695D5
:100D9000879597F9089557FD9058440F551F59F0BE
:100DA0005F3F71F04795880F97FB991F61F09F3F58
:100DB00079F087950895121613061406551FF2CF81
:100DC0004695F1DF08C0161617061806991FF1CFD1
:100DD00086957105610508940895E894BB276627F8
:100DE0007727CB0197F908950E9407070C9478079D
:100DF0000E946A0738F00E94710720F0952311F0D5
:100E00000C9461070C94670711240C94EE060E9461
:100E1000CB0670F3959FC1F3950F50E0551F629F6D
:100E2000F001729FBB27F00DB11D639FAA27F00D43
:100E3000B11DAA1F649F6627B00DA11D661F829F6A
:100E40002227B00DA11D621F739FB00DA11D621F4F
:100E5000839FA00D611D221F749F3327A00D611D6C
:100E6000231F849F600D211D822F762F6A2F11244E
:100E70009F5750409AF0F1F088234AF0EE0FFF1F81
:100E8000BB1F661F771F881F91505040A9F79E3FD8
:100E9000510580F00C9461070C94EE065F3FE4F37B
:100EA000983ED4F3869577956795B795F795E7952E
:100EB0009F5FC1F7FE2B880F911D9695879597F937
:100EC000089597F99F6780E870E060E008959FEFCC
:100ED00080EC089500240A941616170618060906D1
:100EE000089500240A9412161306140605060895A0
:100EF000092E0394000C11F4882352F0BB0F40F428
:100F0000BF2B11F460FF04C06F5F7F4F8F4F9F4F67
:100F10000895A1E21A2EAA1BBB1BFD010DC0AA1F3A
:100F2000BB1FEE1FFF1FA217B307E407F50720F052
:100F3000A21BB30BE40BF50B661F771F881F991FCD
:100F40001A9469F760957095809590959B01AC0116
:100F5000BD01CF010895EE0FFF1F0590F491E02D24
:100F60000994F894FFCF890101000000D0070174B3
:100F70000201000073030100000010270077030046
:100F800000000000000029018900B6007601E7009A
:100F9000C500D9000D0A004D656E73616A65206455
:100FA0006520556269646F7473205B005D200044A6
:100FB00065736162696C6974616E646F20707562DB
:100FC0006C69636163696F6E2064656C20626F7425
:100FD0006F6E00486162696C6974616E646F207045
:100FE00075626C69636163696F6E2064656C206211
:100FF0006F746F6E005375736372696269656E64B6
:101000006F206C61207661726961626C65202700D7
:10101000272064656C20646973706F7369746976E6
:101020006F202700272E2E2E005375736372697070
:1010300063696F6E20657869746F736100546965C8
:101040006D706F207472616E736375727269646F14
:10105000203A200045736372696269656E646F208F
:101060004A534F4E2E205661726961626C652000B2
:10107000203D200045736372697475726120657844
:1010800069746F73612E005075626C6963616E6480
:101090006F2000207661726961626C6573206465FF
:1010A0006C20646973706F73697469766F20005087
:1010B00075626C6963616E646F204A534F4E2E2EC9
:1010C0002E005075626C696361646F206578697485
:1010D0006F73616D656E74652E0070726573696FF4
:1010E0006E61646F00436F6E656374616E646F73ED
:1010F0006520616C20576946692E2E2E00436F6E65
:1011000065637461646F2061206C61207265642086
:101110005769466920657869746F73616D656E748F
:10112000652E00436F6E6669677572616E646F202D
:1011300042726F6B65722E2E2E00436F6E6669676A
:1011400075726163696F6E20657869746F73612E63
:10115000004C696D697465206465207375736372F2
:10116000697063696F6E657320616C63616E7A612B
:10117000646F2E0050756564652061756D656E74D1
:1011800061726C6F20656E20556269646F74732E96
:10119000682E005265636F6E656374616E646F20C4
:1011A0006120556269646F74732E2E2E00436F6E3A
:1011B00065637461646F20657869746F73616D65D0
:1011C0006E7465005375736372697063696F6E2026
:1011D000657869746F73612E006C647200696E7457
:0811E000656E7369646164002F
:107E0000112484B714BE81FFF0D085E080938100F7
:107E100082E08093C00088E18093C10086E0809377
:107E2000C20080E18093C4008EE0C9D0259A86E02C
:107E300020E33CEF91E0309385002093840096BBD3
:107E4000B09BFECF1D9AA8958150A9F7CC24DD24C4
:107E500088248394B5E0AB2EA1E19A2EF3E0BF2EE7
:107E6000A2D0813461F49FD0082FAFD0023811F036
:107E7000013811F484E001C083E08DD089C08234E0
:107E800011F484E103C0853419F485E0A6D080C0E4
:107E9000853579F488D0E82EFF2485D0082F10E0AE
:107EA000102F00270E291F29000F111F8ED06801E7
:107EB0006FC0863521F484E090D080E0DECF843638
:107EC00009F040C070D06FD0082F6DD080E0C81688
:107ED00080E7D80618F4F601B7BEE895C0E0D1E017
:107EE00062D089930C17E1F7F0E0CF16F0E7DF06D8
:107EF00018F0F601B7BEE89568D007B600FCFDCFD4
:107F0000A601A0E0B1E02C9130E011968C91119780
:107F100090E0982F8827822B932B1296FA010C0160
:107F200087BEE89511244E5F5F4FF1E0A038BF0790
:107F300051F7F601A7BEE89507B600FCFDCF97BE46
:107F4000E89526C08437B1F42ED02DD0F82E2BD052
:107F50003CD0F601EF2C8F010F5F1F4F84911BD097
:107F6000EA94F801C1F70894C11CD11CFA94CF0C13
:107F7000D11C0EC0853739F428D08EE10CD085E9AC
:107F80000AD08FE07ACF813511F488E018D01DD067
:107F900080E101D065CF982F8091C00085FFFCCF94
:107FA0009093C60008958091C00087FFFCCF809118
:107FB000C00084FD01C0A8958091C6000895E0E648
:107FC000F0E098E1908380830895EDDF803219F02E
:107FD00088E0F5DFFFCF84E1DECF1F93182FE3DFCA
:107FE0001150E9F7F2DF1F91089580E0E8DFEE27F6
:047FF000FF270994CA
:027FFE00040479
:00000001FF
