:100000000C9453000C947B000C947B000C947B00AC
:100010000C947B000C947B000C947B000C947B0074
:100020000C947B000C947B000C947B000C947B0064
:100030000C947B000C947B000C947B000C947B0054
:100040000C94BF020C947B000C948D020C946702FC
:100050000C947B000C947B000C947B000C947B0034
:100060000C947B000C947B0000000000250028000D
:100070002B0000000000240027002A0004040404D0
:100080000404040402020202020203030303030342
:10009000010204081020408001020408102001021F
:1000A00004081020090311241FBECFEFD8E0DEBFE3
:1000B000CDBF12E0A0E0B1E0E8EEFDE002C00590A7
:1000C0000D92A83FB107D9F723E0A8EFB2E001C035
:1000D0001D92A63BB207E1F710E0C3E5D0E004C0F3
:1000E0002197FE010E94EC06C235D107C9F70E9494
:1000F00053030C94F2060C9400002FB7F89460910F
:10010000FD027091FE028091FF02909100032FBFCB
:100110000895AF92BF92CF92DF92EF92FF920F932A
:100120001F93CF93DF936C017B018B01040F151F8D
:10013000EB015E01AE18BF08C017D10759F06991F5
:10014000D601ED91FC910190F081E02DC601099559
:10015000892B79F7C501DF91CF911F910F91FF9006
:10016000EF90DF90CF90BF90AF900895FC01538D3A
:10017000448D252F30E0842F90E0821B930B541781
:1001800010F0CF96089501970895FC01918D828D0E
:10019000981761F0A28DAE0FBF2FB11D5D968C91A7
:1001A000928D9F5F9F73928F90E008958FEF9FEFE6
:1001B0000895FC01918D828D981731F0828DE80FA2
:1001C000F11D858D90E008958FEF9FEF0895FC015C
:1001D000918D228D892F90E0805C9F4F821B910929
:1001E0008F739927089581E093E00E94E70021E052
:1001F000892B09F420E0822F089580E090E0892B7C
:1002000029F00E94F30081110C9400000895FC0174
:10021000A48DA80FB92FB11DA35ABF4F2C91848D67
:1002200090E001968F739927848FA689B7892C93C4
:10023000A089B1898C91837080648C93938D848D17
:10024000981306C00288F389E02D80818F7D80831A
:100250000895EF92FF920F931F93CF93DF93EC01DA
:1002600081E0888F9B8D8C8D98131AC0E889F9895D
:10027000808185FF15C09FB7F894EE89FF89608360
:10028000E889F98980818370806480839FBF81E0E1
:1002900090E0DF91CF911F910F91FF90EF90089523
:1002A000F62E0B8D10E00F5F1F4F0F731127E02EFE
:1002B0008C8D8E110CC00FB607FCFACFE889F98936
:1002C000808185FFF5CFCE010E940701F1CFEB8D34
:1002D000EC0FFD2FF11DE35AFF4FF0829FB7F8940A
:1002E0000B8FEA89FB8980818062CFCFCF93DF9328
:1002F000EC01888D8823B9F0AA89BB89E889F9893E
:100300008C9185FD03C0808186FD0DC00FB607FC72
:10031000F7CF8C9185FFF2CF808185FFEDCFCE01A5
:100320000E940701E9CFDF91CF91089580E4809387
:100330007C0080917A00806480937A0080917A00BA
:1003400086FDFCCF8091780060917900762F682F30
:10035000072E000C880B990B0E94D10520E030E09D
:1003600048EC5DE30E9435060E949905CB01089593
:10037000FC0101900020E9F73197AF01481B590BB0
:10038000BC0181E093E00C9489008F929F92AF9220
:10039000BF920F931F93CF93DF93CDB7DEB7A19793
:1003A0000FB6F894DEBF0FBECDBF19A2423008F4DD
:1003B0004AE08E010F5D1F4F842E912CB12CA12C91
:1003C000A50194010E94CA06E62FB901CA01EA30CC
:1003D000F4F4E05DD801EE938D01232B242B252B23
:1003E00079F790E080E0109719F0CD010E94B801F4
:1003F000A1960FB6F894DEBF0FBECDBFDF91CF91AF
:100400001F910F91BF90AF909F908F900895E95CDE
:10041000E1CF009711F00C94B80190E080E00895CE
:10042000EF92FF920F931F93CF93DF938C01EB0119
:100430007A018BE391E00E940902C8010E9409023F
:1004400080E591E00E9409028E01EC0EFD1EE0168F
:10045000F10641F0F80161918F0181E093E00E9483
:100460002901F5CF83E591E00E94B80188818033AE
:1004700049F0813379F0DF91CF911F910F91FF9077
:10048000EF90089510921E0110921D0181E080935B
:100490001901F1CF10921E0110921D011092160148
:1004A0001092150110921901E6CFCF93DF93D0E09F
:1004B000C0E0009719F00E94B801EC0183E591E0DB
:1004C0000E94B8018C0F9D1FDF91CF9108951F925C
:1004D0000F920FB60F9211242F933F934F935F9378
:1004E0006F937F938F939F93AF93BF93EF93FF93FC
:1004F00081E093E00E940701FF91EF91BF91AF91DE
:100500009F918F917F916F915F914F913F912F912B
:100510000F900FBE0F901F9018951F920F920FB65D
:100520000F9211242F938F939F93EF93FF93E0915A
:100530001103F09112038081E0911703F0911803E9
:1005400082FD1BC0908180911A038F5F8F73209171
:100550001B03821741F0E0911A03F0E0EF5FFC4FBC
:10056000958F80931A03FF91EF919F918F912F9117
:100570000F900FBE0F901F9018958081F4CF1F929F
:100580000F920FB60F9211242F933F938F939F9347
:10059000AF93BF938091FD029091FE02A091FF0264
:1005A000B09100033091FC0223E0230F2D3758F562
:1005B0000196A11DB11D2093FC028093FD02909332
:1005C000FE02A093FF02B09300038091F802909185
:1005D000F902A091FA02B091FB020196A11DB11D92
:1005E0008093F8029093F902A093FA02B093FB0271
:1005F000BF91AF919F918F913F912F910F900FBE1F
:100600000F901F90189526E8230F0296A11DB11D8B
:10061000D2CFE1E0F3E01382128288EE93E0A0E013
:10062000B0E084839583A683B78383E291E09183CE
:10063000808385EC90E09587848784EC90E09787B1
:10064000868780EC90E0918B808B81EC90E0938B9F
:10065000828B82EC90E0958B848B86EC90E0978B7C
:10066000868B118E128E138E148EE8EAF3E080E1F1
:1006700097E29283818314821382178288E893E140
:1006800091878087138612868DE790E09683858315
:1006900010828AE0E1E3F1E0AEE9B3E001900D926F
:1006A0008A95E1F70895CF93DF931F92CDB7DEB718
:1006B000789484B5826084BD84B5816084BD85B53D
:1006C000826085BD85B5816085BD80916E00816049
:1006D00080936E00109281008091810082608093EF
:1006E00081008091810081608093810080918000F1
:1006F0008160809380008091B10084608093B1001C
:100700008091B00081608093B00080917A00846015
:1007100080937A0080917A00826080937A00809141
:100720007A00816080937A0080917A00806880935B
:100730007A001092C100E0911103F091120382E05F
:100740008083E0910D03F0910E031082E0910F037E
:10075000F091100380E1808310921903E09115035A
:10076000F091160386E08083E0911303F091140367
:10077000808180618083E0911303F0911403808174
:1007800088608083E0911303F09114038081806876
:100790008083E0911303F091140380818F7D808327
:1007A000EEE9F0E02491EAE8F0E084918823C9F0D2
:1007B00090E0880F991FFC01EE58FF4F459154912E
:1007C000FC01E859FF4FA591B4919FB7F894FA0145
:1007D00080812095822380838C91E22FE823EC9303
:1007E0009FBF86E591E00E9455028EE691E00E944F
:1007F000550284E991E00E94550280E192E09093D5
:10080000B5038093B4038BEA91E00E9455028AE01D
:10081000982E90E0A92E90E0B92E21E3822E8091AF
:10082000A803882309F440C0E091AD03F091AE0322
:1008300009950091AB031091AC03012E000C220B23
:10084000330BAB01BC01401B510B620B730B80914E
:10085000A9039091AA03092E000CAA0BBB0B8417C5
:100860009507A607B70700F5E091AD03F091AE0339
:1008700009957093AC036093AB0382EC91E00E9406
:1008800055028CED91E00E94550210E000E080914D
:10089000020090910300081719070CF45CC08EEF5A
:1008A00091E00E945502BBCF8091AF038823B1F144
:1008B000E091AD03F091AE0309950091B203109160
:1008C000B303012E000C220B330BAB01BC01401B08
:1008D000510B620B730B8091B0039091B103092E01
:1008E000000CAA0BBB0B84179507A607B707B0F43B
:1008F000E091AD03F091AE0309957093B30360935B
:10090000B2038982E091B403F091B50341E050E075
:10091000BE016F5F7F4F83EF91E0099501E111E028
:10092000D12CC12CF12CE12C809113019091140158
:10093000C816D9060CF0BDC0D80118968C91882332
:1009400061F190E080E0E80EF91EBFEFCB1ADB0A00
:10095000065F1F4FE9CF83E192E00E940902909E5B
:10096000F001919EF00D1124818592850E9409026B
:100970008EE292E00E9409028091000090910100B5
:100980000E94090282E492E00E94550287E492E00C
:100990000E9455020F5F1F4F7ACF0E947D00F80121
:1009A00044805580052C000C66087708AB01BC011B
:1009B000441955096609770986819781092E000C2B
:1009C000AA0BBB0B481759076A077B0708F4B9CF76
:1009D0008BE592E00E9409020E947D00D8011496E6
:1009E0004D905C90052C000C660877086419750919
:1009F000860997094AE00E94C50183E591E00E94BB
:100A0000B80182E792E00E940902F801818592858F
:100A10000E9409028EE892E00E940902D8011B960A
:100A20008C911B97882309F43FC01C968D919C9153
:100A30002C01990F660877084AE0C301B20177FEDE
:100A40000DC06DE281E093E00E94290166277727BF
:100A5000CB0164197509860997094AE00E94C5010E
:100A60008BEB92E00E94090280911101909112019A
:100A70000E94090283E492E00E945502F8018385F6
:100A8000811104C00484F585E02D099582E992E086
:100A90000E9455020E947D00D80115967C936E93AA
:100AA000149781E090E04FCF1C96ED91FC91099551
:100AB000BFCFEF2891F185EA92E00E940902C09031
:100AC0001301D09014010D2C000CEE08FF084AE031
:100AD000C701B601F7FE0DC06DE281E093E00E9410
:100AE000290166277727CB016C197D098E099F099B
:100AF0004AE00E94C50181EB92E00E9409028091C8
:100B00001101909112010E9455028DEC92E00E9419
:100B1000550280EE92E00E945502A114B10409F43E
:100B20007ECE0E94F300882309F479CE0E94000053
:100B300076CE0E94A0056894B1110C942F060895FA
:100B40000E94140688F09F5798F0B92F9927B75143
:100B5000B0F0E1F0660F771F881F991F1AF0BA9561
:100B6000C9F714C0B13091F00E942E06B1E008958B
:100B70000C942E06672F782F8827B85F39F0B93F7D
:100B8000CCF3869577956795B395D9F73EF4909514
:100B90008095709561957F4F8F4F9F4F0895E89492
:100BA00009C097FB3EF490958095709561957F4FB5
:100BB0008F4F9F4F9923A9F0F92F96E9BB27939563
:100BC000F695879577956795B795F111F8CFFAF473
:100BD000BB0F11F460FF1BC06F5F7F4F8F4F9F4FA4
:100BE00016C0882311F096E911C0772321F09EE802
:100BF000872F762F05C0662371F096E8862F70E068
:100C000060E02AF09A95660F771F881FDAF7880F41
:100C10009695879597F9089557FD9058440F551F5D
:100C200059F05F3F71F04795880F97FB991F61F06E
:100C30009F3F79F087950895121613061406551FE5
:100C4000F2CF4695F1DF08C0161617061806991F51
:100C5000F1CF86957105610508940895E894BB2746
:100C600066277727CB0197F908950E9448060C94D0
:100C7000B9060E94AB0638F00E94B20620F0952318
:100C800011F00C94A2060C94A80611240C942F06C3
:100C90000E940C0670F3959FC1F3950F50E0551F0D
:100CA000629FF001729FBB27F00DB11D639FAA27C1
:100CB000F00DB11DAA1F649F6627B00DA11D661F10
:100CC000829F2227B00DA11D621F739FB00DA11D31
:100CD000621F839FA00D611D221F749F3327A00DEB
:100CE000611D231F849F600D211D822F762F6A2F87
:100CF00011249F5750409AF0F1F088234AF0EE0FEC
:100D0000FF1FBB1F661F771F881F91505040A9F718
:100D10009E3F510580F00C94A2060C942F065F3F75
:100D2000E4F3983ED4F3869577956795B795F79554
:100D3000E7959F5FC1F7FE2B880F911D96958795CC
:100D400097F9089597F99F6780E870E060E008954B
:100D50009FEF80EC089500240A94161617061806D3
:100D60000906089500240A941216130614060506AF
:100D70000895092E0394000C11F4882352F0BB0F40
:100D800040F4BF2B11F460FF04C06F5F7F4F8F4FA3
:100D90009F4F0895A1E21A2EAA1BBB1BFD010DC097
:100DA000AA1FBB1FEE1FFF1FA217B307E407F5071B
:100DB00020F0A21BB30BE40BF50B661F771F881FF7
:100DC000991F1A9469F760957095809590959B018D
:100DD000AC01BD01CF010895EE0FFF1F0590F49106
:080DE000E02D0994F894FFCF07
:100DE800626F746F6E0070726573696F6E61646FA5
:100DF80000000101009E0300000000000000000048
:100E080000000029018900B6007601E700C500D975
:100E1800000000E8030106010100004D656E7361E2
:100E28006A6520646520556269646F7473205B008D
:100E38005D20000D0A00436F6E656374616E646F18
:100E4800736520616C20576946692E2E2E00436F0A
:100E58006E65637461646F2061206C6120726564E3
:100E6800205769466920657869746F73616D656E8E
:100E780074652E00436F6E6669677572616E646F84
:100E88002042726F6B65722E2E2E00436F6E66695C
:100E98006775726163696F6E20657869746F7361D5
:100EA8002E005265636F6E656374616E646F2061B6
:100EB80020556269646F74732E2E2E00436F6E6521
:100EC800637461646F20657869746F73616D656EB2
:100ED80074650070726573696F6E61646F00537535
:100EE800736372697063696F6E20657869746F7374
:100EF800612E005375736372696269656E646F2051
:100F08006C61207661726961626C65202700272018
:100F180064656C20646973706F73697469766F2097
:100F28002700272E2E2E005375736372697063692C
:100F38006F6E20657869746F7361005469656D70B0
:100F48006F207472616E736375727269646F203A90
:100F5800200045736372696269656E646F204A5345
:100F68004F4E2E205661726961626C652000203DEB
:100F780020004573637269747572612065786974BD
:100F88006F73612E005075626C6963616E646F20C7
:100F980000207661726961626C65732064656C20FB
:100FA800646973706F73697469766F200050756235
:100FB8006C6963616E646F204A534F4E2E2E2E006B
:100FC8005075626C696361646F20657869746F73CA
:080FD800616D656E74652E0069
:00000001FF
