:100000000C945D000C9485000C9485000C94850084
:100010000C9485000C9485000C9485000C9485004C
:100020000C9485000C9485000C9485000C9485003C
:100030000C9485000C9485000C9485000C9485002C
:100040000C9450050C9485000C941E050C94F80437
:100050000C9485000C9485000C9485000C9485000C
:100060000C9485000C9485000000000024002700FB
:100070002A0000000000250028002B0004040404CE
:100080000404040402020202020203030303030342
:10009000010204081020408001020408102001021F
:1000A00004081020000000080002010000030407FB
:1000B00000000000000000009A0511241FBECFEFD1
:1000C000D8E0DEBFCDBF14E0A0E0B1E0E0EAF3E1AC
:1000D00002C005900D92A23DB107D9F725E0A2ED2F
:1000E000B4E001C01D92AC3BB207E1F710E0CDE5F2
:1000F000D0E004C02197FE010E94C809CC35D10789
:10010000C9F70E944A060C94CE090C9400002FB740
:10011000F8946091D7047091D8048091D90490919B
:10012000DA042FBF0895AF92BF92CF92DF92EF9281
:10013000FF920F931F93CF93DF936C017B018B0191
:10014000040F151FEB015E01AE18BF08C017D107E1
:1001500059F06991D601ED91FC910190F081E02D6B
:10016000C6010995892B79F7C501DF91CF911F91C0
:100170000F91FF90EF90DF90CF90BF90AF900895D8
:10018000FC01538D448D252F30E0842F90E0821B9D
:10019000930B541710F0CF96089501970895FC0122
:1001A000918D828D981761F0A28DAE0FBF2FB11D7A
:1001B0005D968C91928D9F5F9F73928F90E00895D2
:1001C0008FEF9FEF0895FC01918D828D981731F08C
:1001D000828DE80FF11D858D90E008958FEF9FEFE0
:1001E0000895FC01918D228D892F90E0805C9F4FB6
:1001F000821B91098F73992708958FED94E00E94D7
:10020000F10021E0892B09F420E0822F089580E09D
:1002100090E0892B29F00E94FD0081110C940000D0
:100220000895FC01A48DA80FB92FB11DA35ABF4F8B
:100230002C91848D90E001968F739927848FA689E5
:10024000B7892C93A089B1898C91837080648C9339
:10025000938D848D981306C00288F389E02D8081E8
:100260008F7D80830895EF92FF920F931F93CF931A
:10027000DF93EC0181E0888F9B8D8C8D98131AC0E1
:10028000E889F989808185FF15C09FB7F894EE89C8
:10029000FF896083E889F989808183708064808325
:1002A0009FBF81E090E0DF91CF911F910F91FF9070
:1002B000EF900895F62E0B8D10E00F5F1F4F0F7318
:1002C0001127E02E8C8D8E110CC00FB607FCFACFD3
:1002D000E889F989808185FFF5CFCE010E9411015F
:1002E000F1CFEB8DEC0FFD2FF11DE35AFF4FF082A4
:1002F0009FB7F8940B8FEA89FB8980818062CFCF0A
:10030000CF93DF93EC01888D8823B9F0AA89BB894C
:10031000E889F9898C9185FD03C0808186FD0DC037
:100320000FB607FCF7CF8C9185FFF2CF808185FF58
:10033000EDCFCE010E941101E9CFDF91CF91089559
:1003400080E480937C0080917A00806480937A00BE
:1003500080917A0086FDFCCF8091780060917900D1
:10036000762F682F072E000C880B990B0E94AD0882
:1003700020E030E048EC5DE30E9411090E9475081E
:10038000CB010895CF93DF93EC01EB81FC810995BC
:100390007E836D83DF91CF910895CF93DF93EC013E
:1003A000EB81FC8109952D813E81CB01821B930B52
:1003B000DF91CF910895CF92DF92EF92FF920F934A
:1003C0001F93CF93DF9300D000D000D01F92CDB702
:1003D000DEB729833A834B835C836D837E838F836F
:1003E0008CE7C82E85E0D82ED6011D96ED91FC91A4
:1003F00080E791E00995D6011D96ED91FC918EE282
:1004000091E00995D6011D96ED91FC91C7010995E2
:10041000D6011D96ED91FC9188E391E00995F601D6
:10042000E784F0880188F289E02D0995CB01F70176
:100430000995D6011D96ED91FC9183E491E0099513
:10044000F601E784F088CE0101960E94CD01F70104
:100450000995D6011D96ED91FC9189E591E00995EC
:10046000D6011D96ED91FC91C801099527960FB60E
:10047000F894DEBF0FBECDBFDF91CF911F910F91DA
:10048000FF90EF90DF90CF900895FC010190002045
:10049000E9F73197AF01481B590BBC018FED94E090
:1004A0000C9493008F929F92AF92BF920F931F93E1
:1004B000CF93DF93CDB7DEB7A1970FB6F894DEBF29
:1004C0000FBECDBF19A2423008F44AE08E010F5D85
:1004D0001F4F842E912CB12CA12CA50194010E94B8
:1004E000A609E62FB901CA01EA30F4F4E05DD801AB
:1004F000EE938D01232B242B252B79F790E080E0C0
:10050000109719F0CD010E944502A1960FB6F894FC
:10051000DEBF0FBECDBFDF91CF911F910F91BF9076
:10052000AF909F908F900895E95CE1CFCF92DF92DA
:10053000EF92FF92CF93DF936B017C016DE28FED21
:1005400094E00E943301EC0166277727CB016C19F8
:100550007D098E099F094AE00E9452028C0F9D1F5F
:10056000DF91CF91FF90EF90DF90CF900895CF93E0
:10057000DF93D0E0C0E0009719F00E944502EC0143
:100580008EE691E00E9445028C0F9D1FDF91CF9176
:1005900008950C94B702009711F00C94450290E076
:1005A00080E00895EF92FF920F931F93CF93DF9314
:1005B0007C01EC0110E000E0F701828193810817D3
:1005C00019072CF580E791E00E94B70281E791E0DE
:1005D0000E94B70285E891E00E94CB0289859A8546
:1005E0000E94CB0280EA91E00E94CB02F701808159
:1005F00091810E94CB0284EB91E00E94B70289EBCB
:1006000091E00E94B7020F5F1F4F2A96D5CFDF916E
:10061000CF911F910F91FF90EF900895BC01990F1A
:10062000880B990B97FF06C00E9496028EE691E018
:100630000C9445024AE00E945202F8CFBC01990F87
:10064000880B990B97FD0C9496024AE00C94520289
:10065000CF93DF934AE00E945202EC018EE691E0D4
:100660000E9445028C0F9D1FDF91CF910895EF925C
:10067000FF920F931F93CF93DF938C01EB017A01CD
:1006800080E791E00E94B7028DEC91E00E94B702F2
:1006900088E391E00E94CB020E9487000E94280319
:1006A00088ED91E00E94CB02C8010E94CB028DEE42
:1006B00091E00E94CB028E01EC0EFD1EE016F106C9
:1006C00041F0F80161918F018FED94E00E943301B8
:1006D000F5CF8EE691E00E9445028881803349F093
:1006E000813399F0DF91CF911F910F91FF90EF909F
:1006F000089580EF91E00E94B70210920D011092D0
:100700000C0181E080930801EDCF84E192E00E942A
:10071000B7020E94870010920D0110920C01709395
:1007200005016093040110920801DCCF8F929F9223
:10073000AF92BF92CF92DF92EF92FF920F931F93EF
:10074000CF93DF938C01EC01D12CC12CF12CE12C47
:10075000F80182819381C816D9060CF07CC0888587
:10076000882349F090E080E0E80EF91EFFEFCF1AF1
:10077000DF0A2A96EDCF0E9487008C809D80092C8D
:10078000000CAA08BB08AB01BC01481959096A0949
:100790007B098E819F81092E000CAA0BBB0B481789
:1007A00059076A077B07F0F280E791E00E94B702E1
:1007B00086E392E00E94B70288E391E00E94CB02B8
:1007C0000E9487000E94280382E492E00E94CB02EC
:1007D0000E9487008C809D80092C000CAA08BB0811
:1007E000681979098A099B090E94280385E792E024
:1007F0000E94CB0289859A850E94CB0281E992E012
:100800000E94CB028B85882311F18C859D850E94E7
:100810001E038EEE92E00E94CB02F801808191814E
:100820000E94CB0285EB91E00E94B7028B8581117B
:1008300003C0EC85FD85099585E992E00E94B70229
:100840000E9487007D836C8381E090E08DCFEC85F2
:10085000FD850995DCCFEF2809F4BDC080E791E064
:100860000E94B70288EA92E00E94B70283EB92E00E
:100870000E94B70288ED92E00E94CB02F8018281CB
:1008800093810E941E0384EE92E00E94CB02F80145
:10089000808191810E94B70280E791E00E94B702B7
:1008A00080E093E00E94B7028AE093E00E94B702E2
:1008B000F801E080F180D0E0C0E010E000E080913D
:1008C000850590918605081719070CF070C0E09116
:1008D0008705F0918805EC0FFD1F81859285805773
:1008E000914009F460C027853089D701F90190E073
:1008F00080E05D91552309F453C04191442309F4EC
:100900004FC001965417A9F30197F701E80FF91F9B
:10091000820F931F2081FC018081281344C0E09145
:100920008905F0918A0580E791E00995E0918905B4
:10093000F0918A058DE193E00995E0918905F091A8
:100940008A0586E293E00995E0918905F0918A0590
:1009500080E393E00995A0918705B0918805AC0FDD
:10096000BD1FE0918905F0918A051F968D919C919C
:100970000995A0918705B0918805AC0FBD1F1D9604
:100980004D915C911E9719966D917C911A97E0910B
:100990007C05F0917D0551968D919C91099503C040
:1009A000009709F0B1CF0F5F1F4F639688CF80E7A4
:1009B00091E00E94B7028EE493E0DF91CF911F9106
:1009C0000F91FF90EF90DF90CF90BF90AF909F90EE
:1009D0008F900C94B702DF91CF911F910F91FF90F0
:1009E000EF90DF90CF90BF90AF909F908F90089541
:1009F0001F920F920FB60F9211242F933F934F9394
:100A00005F936F937F938F939F93AF93BF93EF9376
:100A1000FF938FED94E00E941101FF91EF91BF9140
:100A2000AF919F918F917F916F915F914F913F9186
:100A30002F910F900FBE0F901F9018951F920F923D
:100A40000FB60F9211242F938F939F93EF93FF93E1
:100A5000E091EF04F091F0048081E091F504F091D1
:100A6000F60482FD1BC090818091F8048F5F8F7324
:100A70002091F904821741F0E091F804F0E0E1528E
:100A8000FB4F958F8093F804FF91EF919F918F9189
:100A90002F910F900FBE0F901F9018958081F4CF6B
:100AA0001F920F920FB60F9211242F933F938F93A3
:100AB0009F93AF93BF938091D7049091D804A09156
:100AC000D904B091DA043091D60423E0230F2D37F6
:100AD00058F50196A11DB11D2093D6048093D7042B
:100AE0009093D804A093D904B093DA048091D204EF
:100AF0009091D304A091D404B091D5040196A11D86
:100B0000B11D8093D2049093D304A093D404B093E6
:100B1000D504BF91AF919F918F913F912F910F90ED
:100B20000FBE0F901F90189526E8230F0296A11D67
:100B3000B11DD2CFDF92EF92FF920F931F93CF930D
:100B4000DF9300D000D000D01F92CDB7DEB7EFED1D
:100B5000F4E01382128288EE93E0A0E0B0E0848398
:100B60009583A683B78380E291E09183808385ECAF
:100B700090E09587848784EC90E09787868780EC67
:100B800090E0918B808B81EC90E0938B828B82EC58
:100B900090E0958B848B86EC90E0978B868B118E02
:100BA000128E138E148EE5EBF5E0DD24D394D08203
:100BB00088E99AE39283818387E8E82E80E0F82E23
:100BC000F482E382CF010E94C20102EA15E0F8013B
:100BD000D08280E49FE192838183F482E382C80122
:100BE0000E94C2018BE693E0F801928B818B80E337
:100BF00092E0908B878786E793E09087878388E7EA
:100C000093E0928781871682158281E090E0948735
:100C100083879687858723E1AFE8B5E001900D9241
:100C20002A95E1F727E0E5EBF5E0DE01119601906A
:100C30000D922A95E1F727E0FE013196AEE7B5E087
:100C400001900D922A95E1F7ECE7F5E02FE835E009
:100C5000348723879287818789EC92E096878587FE
:100C60008EE093E0908B8787F28AE18A80EA91E0B8
:100C700090931B0180931A0127960FB6F894DEBF5C
:100C80000FBECDBFDF91CF911F910F91FF90EF90DD
:100C9000DF900895789484B5826084BD84B58160C6
:100CA00084BD85B5826085BD85B5816085BD809137
:100CB0006E00816080936E001092810080918100AF
:100CC00082608093810080918100816080938100A7
:100CD000809180008160809380008091B100846069
:100CE0008093B1008091B00081608093B0008091CA
:100CF0007A00846080937A0080917A008260809389
:100D00007A0080917A00816080937A0080917A00E5
:100D1000806880937A001092C100E091EF04F09116
:100D2000F00482E08083E091EB04F091EC04108207
:100D3000E091ED04F091EE0480E180831092F704DD
:100D4000E091F304F091F40486E08083E091F104F3
:100D5000F091F204808180618083E091F104F09150
:100D6000F204808188608083E091F104F091F204C4
:100D7000808180688083E091F104F091F2048081A9
:100D80008F7D8083EEE9F0E02491EAE8F0E0849141
:100D90008823C1F090E0880F991FFC01E859FF4FAC
:100DA000C591D491FC01EE58FF4FA591B4919FB726
:100DB000F8948881E22FE0958E2388838C91E82334
:100DC000EC939FBF4DE950E0FA01649189E890E00F
:100DD000FC012491222399F030E0220F331FF90106
:100DE000E859FF4FA591B491F901EE58FF4F2591B5
:100DF00034912FB7F8943C91632B6C932FBFE1EBA8
:100E0000F0E02491FA014491FC0194919923D9F0E6
:100E1000222359F0233009F456C008F049C021308C
:100E200009F457C0223009F458C0E92FF0E0EE0F62
:100E3000FF1FEE58FF4FA591B4918FB7F8949C9186
:100E4000492B4C938FBF80E791E00E94B7028AE75D
:100E500093E00E94B70285E893E00E94B7028DE913
:100E600093E00E94B70283EC93E00E94B70287E30D
:100E700093E090937D0580937C05D0E0C0E010E086
:100E800000E0DD24D39480918505909186050817B4
:100E9000190784F580918705909188058C0F9D1F17
:100EA000FC01D0820E94C2010F5F1F4F6396EBCFFF
:100EB0002730B1F02830D1F0243009F0B6CF80913E
:100EC00080008F7D03C0809180008F7780938000A9
:100ED000ACCF84B58F7784BDA8CF84B58F7DFBCF91
:100EE0008091B0008F778093B0009FCF8091B00049
:100EF0008F7DF9CF8AED93E00E94B7028091DB04E9
:100F00009091DC04181619060CF05AC080E791E0A5
:100F10000E94B70281EF93E00E94B70285E094E05F
:100F20000E94B70288E294E00E94B70230E0A32E4C
:100F300030E0B32E80917E05882309F454C08EE7FB
:100F400095E00E94CD0120917F0530918005281702
:100F500039070CF048C097E4E92E94E0F92E03E538
:100F600014E020917E0530917F05409180055091DD
:100F700081056091820570918305809184050E94AE
:100F8000DB018EE795E00E94C20180E791E00E94BC
:100F9000B70280E694E00E94B7028DE694E00E94DA
:100FA000B70287E894E00E94B7028091DD04909137
:100FB000DE040E94D2028EE994E00E94B702BACF0A
:100FC0009C012F5F3F4F3093DC042093DB04880F9C
:100FD000991FFC01E352FB4F80E091E091838083F5
:100FE0000E94D202A3CF80E091E00E9496038EE09F
:100FF00091E00E949603D0E0C0E0D12CC12C8091FA
:10100000850590918605C816D9060CF062C000913E
:101010008705109188050C0F1D1FF80187819085A9
:101020008057914009F450C0F8018081882309F469
:101030004BC0C8010E94CD01F801218132812817DF
:1010400039070CF041C0E0918705F0918805EC0F5D
:10105000FD1F83EBE82E84E0F82E0AEB14E02081DC
:101060003181428153816481758186810E94DB01D7
:10107000A0918705B0918805AC0FBD1FE09189054F
:10108000F0918A051F968D919C910995A0918705F5
:10109000B0918805AC0FBD1F1B964D915C911C97BC
:1010A00017966D917C911897E0917C05F0917D05E4
:1010B00051968D919C910995809187059091880515
:1010C0008C0F9D1F0E94C201FFEFCF1ADF0A6396AB
:1010D00096CFA114B10409F42DCF0E94FD008823FE
:1010E00009F428CF0E94000025CF0E947C08689454
:1010F000B1110C940B0908950E94F00888F09F57D5
:1011000098F0B92F9927B751B0F0E1F0660F771F2B
:10111000881F991F1AF0BA95C9F714C0B13091F021
:101120000E940A09B1E008950C940A09672F782FEC
:101130008827B85F39F0B93FCCF3869577956795E6
:10114000B395D9F73EF490958095709561957F4F52
:101150008F4F9F4F0895E89409C097FB3EF49095F8
:101160008095709561957F4F8F4F9F4F9923A9F080
:10117000F92F96E9BB279395F6958795779567950F
:10118000B795F111F8CFFAF4BB0F11F460FF1BC053
:101190006F5F7F4F8F4F9F4F16C0882311F096E9E6
:1011A00011C0772321F09EE8872F762F05C0662394
:1011B00071F096E8862F70E060E02AF09A95660F4D
:1011C000771F881FDAF7880F9695879597F9089506
:1011D00057FD9058440F551F59F05F3F71F04795E8
:1011E000880F97FB991F61F09F3F79F087950895CD
:1011F000121613061406551FF2CF4695F1DF08C0EC
:10120000161617061806991FF1CF86957105610508
:1012100008940895E894BB2766277727CB0197F9B0
:1012200008950E9424090C9495090E94870938F0BA
:101230000E948E0920F0952311F00C947E090C94E5
:10124000840911240C940B090E94E80870F3959FFF
:10125000C1F3950F50E0551F629FF001729FBB27AD
:10126000F00DB11D639FAA27F00DB11DAA1F649F49
:101270006627B00DA11D661F829F2227B00DA11DFC
:10128000621F739FB00DA11D621F839FA00D611D82
:10129000221F749F3327A00D611D231F849F600DA3
:1012A000211D822F762F6A2F11249F5750409AF0CC
:1012B000F1F088234AF0EE0FFF1FBB1F661F771F58
:1012C000881F91505040A9F79E3F510580F00C9423
:1012D0007E090C940B095F3FE4F3983ED4F38695A6
:1012E00077956795B795F795E7959F5FC1F7FE2BC3
:1012F000880F911D9695879597F9089597F99F679F
:1013000080E870E060E008959FEF80EC089500248D
:101310000A941616170618060906089500240A945A
:1013200012161306140605060895092E0394000CE0
:1013300011F4882352F0BB0F40F4BF2B11F460FF6F
:1013400004C06F5F7F4F8F4F9F4F0895A1E21A2E09
:10135000AA1BBB1BFD010DC0AA1FBB1FEE1FFF1F59
:10136000A217B307E407F50720F0A21BB30BE40BA9
:10137000F50B661F771F881F991F1A9469F76095F0
:101380007095809590959B01AC01BD01CF010895AA
:10139000EE0FFF1F0590F491E02D0994F894FFCF14
:1013A0003002010000008813016B03010000C30438
:1013B00001000000881300C70400000000000000C6
:1013C00033019300C0008001F100CF00E3004661CB
:1013D0006B65556269203A006D696C6C69732829E8
:1013E0003A20005469656D706F207472616E73638A
:1013F00075727269646F203A006465736465206C6D
:1014000061206F7065726163696F6E203A000D0A2A
:101410000073757362736372696265416C6C5661C7
:1014200072732829005375736372696269656E640B
:101430006F206C61207661726961626C65202700A3
:10144000272064656C20646973706F7369746976B2
:101450006F202700272E2E2E00537573637269703C
:1014600063696F6E20657869746F73610063616C86
:101470006C6261636B2829004D656E73616A65203B
:10148000646520556269646F7473205B005D2000A1
:101490004465736162696C6974616E646F20707514
:1014A000626C69636163696F6E2064656C20626F52
:1014B000746F6E00486162696C6974616E646F205C
:1014C0007075626C69636163696F6E2064656C201E
:1014D000626F746F6E00756269436F6D6D69742819
:1014E00029005469656D706F207472616E73637545
:1014F000727269646F206465736465206C61207525
:101500006C74696D61207075626C69636163696F89
:101510006E203A200045736372696269656E646F7C
:10152000204A534F4E2E205661726961626C6520CD
:1015300000203D20004573637269747572612065F7
:101540007869746F73612E00756269436865636BB7
:10155000282900536520656E636F6E747261726F27
:101560006E20636F6D6D697473207061726120709D
:1015700075626C69636172005075626C6963616E5B
:10158000646F2000207661726961626C657320640B
:10159000656C20646973706F73697469766F20007D
:1015A000756269507573682829005075626C6963AB
:1015B000616E646F204A534F4E2E2E2E0046616B93
:1015C000655562693E007075626C69736828290010
:1015D000526573706F6E6469656E646F20707562BA
:1015E0006C69636163696F6E206465203A004A53D9
:1015F0004F4E205075626C696361646F2065786935
:10160000746F73616D656E74652E007072657369B9
:101610006F6E61646F0031003000756269536574EC
:101620007570282900436F6E656374616E646F7313
:101630006520616C20576946692E2E2E00436F6E1F
:1016400065637461646F2061206C61207265642041
:101650005769466920657869746F73616D656E744A
:10166000652E00436F6E6669677572616E646F20E8
:1016700042726F6B65722E2E2E00436F6E66696725
:1016800075726163696F6E20657869746F73612E1E
:10169000004552524F523A20756269537562736326
:1016A00072696265004C696D6974652064652073B8
:1016B00075736372697063696F6E657320616C63C3
:1016C000616E7A61646F2E00507565646520617586
:1016D0006D656E7461726C6F20656E205562696411
:1016E0006F74732E682E00636F6E6E65637465642D
:1016F000282900646573636F6E656363696F6E00AC
:10170000756269436F6E6E65637428290052656364
:101710006F6E656374616E646F20612055626964E9
:101720006F74732E2E2E00436F6E65637461646F49
:1017300020657869746F73616D656E7465005375AB
:10174000736372697063696F6E20657869746F7313
:10175000612E006C6F6F7028290063616C6C626190
:10176000636B006C647200696E74656E73696461AA
:02177000640013
:00000001FF
